{"abi":[{"type":"constructor","inputs":[{"name":"baseURI","type":"string","internalType":"string"}],"stateMutability":"nonpayable"},{"type":"function","name":"ARCHITECT","inputs":[],"outputs":[{"name":"","type":"uint256","internalType":"uint256"}],"stateMutability":"view"},{"type":"function","name":"ASCENDANT","inputs":[],"outputs":[{"name":"","type":"uint256","internalType":"uint256"}],"stateMutability":"view"},{"type":"function","name":"ECHO","inputs":[],"outputs":[{"name":"","type":"uint256","internalType":"uint256"}],"stateMutability":"view"},{"type":"function","name":"OPERATOR","inputs":[],"outputs":[{"name":"","type":"uint256","internalType":"uint256"}],"stateMutability":"view"},{"type":"function","name":"SOVEREIGN","inputs":[],"outputs":[{"name":"","type":"uint256","internalType":"uint256"}],"stateMutability":"view"},{"type":"function","name":"SPECIALIST","inputs":[],"outputs":[{"name":"","type":"uint256","internalType":"uint256"}],"stateMutability":"view"},{"type":"function","name":"TOOL","inputs":[],"outputs":[{"name":"","type":"uint256","internalType":"uint256"}],"stateMutability":"view"},{"type":"function","name":"authorizedMinters","inputs":[{"name":"","type":"address","internalType":"address"}],"outputs":[{"name":"","type":"bool","internalType":"bool"}],"stateMutability":"view"},{"type":"function","name":"balanceOf","inputs":[{"name":"account","type":"address","internalType":"address"},{"name":"id","type":"uint256","internalType":"uint256"}],"outputs":[{"name":"","type":"uint256","internalType":"uint256"}],"stateMutability":"view"},{"type":"function","name":"balanceOfBatch","inputs":[{"name":"accounts","type":"address[]","internalType":"address[]"},{"name":"ids","type":"uint256[]","internalType":"uint256[]"}],"outputs":[{"name":"","type":"uint256[]","internalType":"uint256[]"}],"stateMutability":"view"},{"type":"function","name":"capabilityScore","inputs":[{"name":"","type":"address","internalType":"address"}],"outputs":[{"name":"","type":"uint256","internalType":"uint256"}],"stateMutability":"view"},{"type":"function","name":"completionTime","inputs":[{"name":"","type":"address","internalType":"address"}],"outputs":[{"name":"","type":"uint256","internalType":"uint256"}],"stateMutability":"view"},{"type":"function","name":"exists","inputs":[{"name":"id","type":"uint256","internalType":"uint256"}],"outputs":[{"name":"","type":"bool","internalType":"bool"}],"stateMutability":"view"},{"type":"function","name":"getAgentProfile","inputs":[{"name":"agent","type":"address","internalType":"address"}],"outputs":[{"name":"tier","type":"uint256","internalType":"uint256"},{"name":"cs","type":"uint256","internalType":"uint256"},{"name":"time","type":"uint256","internalType":"uint256"},{"name":"badges","type":"bool[7]","internalType":"bool[7]"}],"stateMutability":"view"},{"type":"function","name":"highestTier","inputs":[{"name":"","type":"address","internalType":"address"}],"outputs":[{"name":"","type":"uint256","internalType":"uint256"}],"stateMutability":"view"},{"type":"function","name":"isApprovedForAll","inputs":[{"name":"account","type":"address","internalType":"address"},{"name":"operator","type":"address","internalType":"address"}],"outputs":[{"name":"","type":"bool","internalType":"bool"}],"stateMutability":"view"},{"type":"function","name":"mintBadge","inputs":[{"name":"agent","type":"address","internalType":"address"},{"name":"tier","type":"uint256","internalType":"uint256"},{"name":"cs","type":"uint256","internalType":"uint256"},{"name":"timeSeconds","type":"uint256","internalType":"uint256"}],"outputs":[],"stateMutability":"nonpayable"},{"type":"function","name":"mintBatchBadges","inputs":[{"name":"agent","type":"address","internalType":"address"},{"name":"tiers","type":"uint256[]","internalType":"uint256[]"},{"name":"cs","type":"uint256","internalType":"uint256"},{"name":"timeSeconds","type":"uint256","internalType":"uint256"}],"outputs":[],"stateMutability":"nonpayable"},{"type":"function","name":"owner","inputs":[],"outputs":[{"name":"","type":"address","internalType":"address"}],"stateMutability":"view"},{"type":"function","name":"renounceOwnership","inputs":[],"outputs":[],"stateMutability":"nonpayable"},{"type":"function","name":"safeBatchTransferFrom","inputs":[{"name":"from","type":"address","internalType":"address"},{"name":"to","type":"address","internalType":"address"},{"name":"ids","type":"uint256[]","internalType":"uint256[]"},{"name":"amounts","type":"uint256[]","internalType":"uint256[]"},{"name":"data","type":"bytes","internalType":"bytes"}],"outputs":[],"stateMutability":"nonpayable"},{"type":"function","name":"safeTransferFrom","inputs":[{"name":"from","type":"address","internalType":"address"},{"name":"to","type":"address","internalType":"address"},{"name":"id","type":"uint256","internalType":"uint256"},{"name":"amount","type":"uint256","internalType":"uint256"},{"name":"data","type":"bytes","internalType":"bytes"}],"outputs":[],"stateMutability":"nonpayable"},{"type":"function","name":"setApprovalForAll","inputs":[{"name":"operator","type":"address","internalType":"address"},{"name":"approved","type":"bool","internalType":"bool"}],"outputs":[],"stateMutability":"nonpayable"},{"type":"function","name":"setBaseURI","inputs":[{"name":"newBaseURI","type":"string","internalType":"string"}],"outputs":[],"stateMutability":"nonpayable"},{"type":"function","name":"setMinter","inputs":[{"name":"minter","type":"address","internalType":"address"},{"name":"authorized","type":"bool","internalType":"bool"}],"outputs":[],"stateMutability":"nonpayable"},{"type":"function","name":"supportsInterface","inputs":[{"name":"interfaceId","type":"bytes4","internalType":"bytes4"}],"outputs":[{"name":"","type":"bool","internalType":"bool"}],"stateMutability":"view"},{"type":"function","name":"totalSupply","inputs":[],"outputs":[{"name":"","type":"uint256","internalType":"uint256"}],"stateMutability":"view"},{"type":"function","name":"totalSupply","inputs":[{"name":"id","type":"uint256","internalType":"uint256"}],"outputs":[{"name":"","type":"uint256","internalType":"uint256"}],"stateMutability":"view"},{"type":"function","name":"transferOwnership","inputs":[{"name":"newOwner","type":"address","internalType":"address"}],"outputs":[],"stateMutability":"nonpayable"},{"type":"function","name":"uri","inputs":[{"name":"tokenId","type":"uint256","internalType":"uint256"}],"outputs":[{"name":"","type":"string","internalType":"string"}],"stateMutability":"view"},{"type":"event","name":"ApprovalForAll","inputs":[{"name":"account","type":"address","indexed":true,"internalType":"address"},{"name":"operator","type":"address","indexed":true,"internalType":"address"},{"name":"approved","type":"bool","indexed":false,"internalType":"bool"}],"anonymous":false},{"type":"event","name":"MinterUpdated","inputs":[{"name":"minter","type":"address","indexed":true,"internalType":"address"},{"name":"authorized","type":"bool","indexed":false,"internalType":"bool"}],"anonymous":false},{"type":"event","name":"OwnershipTransferred","inputs":[{"name":"previousOwner","type":"address","indexed":true,"internalType":"address"},{"name":"newOwner","type":"address","indexed":true,"internalType":"address"}],"anonymous":false},{"type":"event","name":"TierAchieved","inputs":[{"name":"agent","type":"address","indexed":true,"internalType":"address"},{"name":"tier","type":"uint256","indexed":false,"internalType":"uint256"},{"name":"cs","type":"uint256","indexed":false,"internalType":"uint256"},{"name":"timeSeconds","type":"uint256","indexed":false,"internalType":"uint256"}],"anonymous":false},{"type":"event","name":"TransferBatch","inputs":[{"name":"operator","type":"address","indexed":true,"internalType":"address"},{"name":"from","type":"address","indexed":true,"internalType":"address"},{"name":"to","type":"address","indexed":true,"internalType":"address"},{"name":"ids","type":"uint256[]","indexed":false,"internalType":"uint256[]"},{"name":"values","type":"uint256[]","indexed":false,"internalType":"uint256[]"}],"anonymous":false},{"type":"event","name":"TransferSingle","inputs":[{"name":"operator","type":"address","indexed":true,"internalType":"address"},{"name":"from","type":"address","indexed":true,"internalType":"address"},{"name":"to","type":"address","indexed":true,"internalType":"address"},{"name":"id","type":"uint256","indexed":false,"internalType":"uint256"},{"name":"value","type":"uint256","indexed":false,"internalType":"uint256"}],"anonymous":false},{"type":"event","name":"URI","inputs":[{"name":"value","type":"string","indexed":false,"internalType":"string"},{"name":"id","type":"uint256","indexed":true,"internalType":"uint256"}],"anonymous":false},{"type":"error","name":"ERC1155InsufficientBalance","inputs":[{"name":"sender","type":"address","internalType":"address"},{"name":"balance","type":"uint256","internalType":"uint256"},{"name":"needed","type":"uint256","internalType":"uint256"},{"name":"tokenId","type":"uint256","internalType":"uint256"}]},{"type":"error","name":"ERC1155InvalidApprover","inputs":[{"name":"approver","type":"address","internalType":"address"}]},{"type":"error","name":"ERC1155InvalidArrayLength","inputs":[{"name":"idsLength","type":"uint256","internalType":"uint256"},{"name":"valuesLength","type":"uint256","internalType":"uint256"}]},{"type":"error","name":"ERC1155InvalidOperator","inputs":[{"name":"operator","type":"address","internalType":"address"}]},{"type":"error","name":"ERC1155InvalidReceiver","inputs":[{"name":"receiver","type":"address","internalType":"address"}]},{"type":"error","name":"ERC1155InvalidSender","inputs":[{"name":"sender","type":"address","internalType":"address"}]},{"type":"error","name":"ERC1155MissingApprovalForAll","inputs":[{"name":"operator","type":"address","internalType":"address"},{"name":"owner","type":"address","internalType":"address"}]},{"type":"error","name":"OwnableInvalidOwner","inputs":[{"name":"owner","type":"address","internalType":"address"}]},{"type":"error","name":"OwnableUnauthorizedAccount","inputs":[{"name":"account","type":"address","internalType":"address"}]}],"bytecode":{"object":"0x608060405234801561000f575f5ffd5b5060405161434738038061434783398181016040528101906100319190610351565b33816100428161012e60201b60201c565b505f73ffffffffffffffffffffffffffffffffffffffff168173ffffffffffffffffffffffffffffffffffffffff16036100b3575f6040517f1e4fbdf70000000000000000000000000000000000000000000000000000000081526004016100aa91906103d7565b60405180910390fd5b6100c28161014160201b60201c565b5080600a90816100d29190610611565b50600160095f3373ffffffffffffffffffffffffffffffffffffffff1673ffffffffffffffffffffffffffffffffffffffff1681526020019081526020015f205f6101000a81548160ff021916908315150217905550506106e0565b806002908161013d9190610611565b5050565b5f60035f9054906101000a900473ffffffffffffffffffffffffffffffffffffffff1690508160035f6101000a81548173ffffffffffffffffffffffffffffffffffffffff021916908373ffffffffffffffffffffffffffffffffffffffff1602179055508173ffffffffffffffffffffffffffffffffffffffff168173ffffffffffffffffffffffffffffffffffffffff167f8be0079c531659141344cd1fd0a4f28419497f9722a3daafe3b4186f6b6457e060405160405180910390a35050565b5f604051905090565b5f5ffd5b5f5ffd5b5f5ffd5b5f5ffd5b5f601f19601f8301169050919050565b7f4e487b71000000000000000000000000000000000000000000000000000000005f52604160045260245ffd5b6102638261021d565b810181811067ffffffffffffffff821117156102825761028161022d565b5b80604052505050565b5f610294610204565b90506102a0828261025a565b919050565b5f67ffffffffffffffff8211156102bf576102be61022d565b5b6102c88261021d565b9050602081019050919050565b8281835e5f83830152505050565b5f6102f56102f0846102a5565b61028b565b90508281526020810184848401111561031157610310610219565b5b61031c8482856102d5565b509392505050565b5f82601f83011261033857610337610215565b5b81516103488482602086016102e3565b91505092915050565b5f602082840312156103665761036561020d565b5b5f82015167ffffffffffffffff81111561038357610382610211565b5b61038f84828501610324565b91505092915050565b5f73ffffffffffffffffffffffffffffffffffffffff82169050919050565b5f6103c182610398565b9050919050565b6103d1816103b7565b82525050565b5f6020820190506103ea5f8301846103c8565b92915050565b5f81519050919050565b7f4e487b71000000000000000000000000000000000000000000000000000000005f52602260045260245ffd5b5f600282049050600182168061043e57607f821691505b602082108103610451576104506103fa565b5b50919050565b5f819050815f5260205f209050919050565b5f6020601f8301049050919050565b5f82821b905092915050565b5f600883026104b37fffffffffffffffffffffffffffffffffffffffffffffffffffffffffffffffff82610478565b6104bd8683610478565b95508019841693508086168417925050509392505050565b5f819050919050565b5f819050919050565b5f6105016104fc6104f7846104d5565b6104de565b6104d5565b9050919050565b5f819050919050565b61051a836104e7565b61052e61052682610508565b848454610484565b825550505050565b5f5f905090565b610545610536565b610550818484610511565b505050565b5f5b828110156105765761056b5f82840161053d565b600181019050610557565b505050565b601f8211156105c957828211156105c85761059581610457565b61059e83610469565b6105a785610469565b60208610156105b4575f90505b8083016105c382840382610555565b505050505b5b505050565b5f82821c905092915050565b5f6105e95f19846008026105ce565b1980831691505092915050565b5f61060183836105da565b9150826002028217905092915050565b61061a826103f0565b67ffffffffffffffff8111156106335761063261022d565b5b61063d8254610427565b61064882828561057b565b5f60209050601f831160018114610679575f8415610667578287015190505b61067185826105f6565b8655506106d8565b601f19841661068786610457565b5f5b828110156106ae57848901518255600182019150602085019450602081019050610689565b868310156106cb57848901516106c7601f8916826105da565b8355505b6001600288020188555050505b505050505050565b613c5a806106ed5f395ff3fe608060405234801561000f575f5ffd5b50600436106101d7575f3560e01c8063881dac8e11610102578063af525140116100a0578063e985e9c51161006f578063e985e9c514610590578063f126d714146105c0578063f242432a146105de578063f2fde38b146105fa576101d7565b8063af525140146104f8578063bd85b03914610514578063cf456ae714610544578063d02d387e14610560576101d7565b8063983d2737116100dc578063983d273714610472578063a027916e14610490578063a22cb465146104ac578063aa2fe91b146104c8576101d7565b8063881dac8e146104185780638d3bc36a146104365780638da5cb5b14610454576101d7565b8063359bbf661161017a5780634f558e79116101495780634f558e791461038f57806355f804b3146103bf578063715018a6146103db57806378dc93a4146103e5576101d7565b8063359bbf66146102f357806337af608b146103115780634c813766146103415780634e1273f41461035f576101d7565b80630fe8baf0116101b65780630fe8baf01461026b57806318160ddd14610289578063266dc7be146102a75780632eb2c2d6146102d7576101d7565b8062fdd58e146101db57806301ffc9a71461020b5780630e89341c1461023b575b5f5ffd5b6101f560048036038101906101f0919061266a565b610616565b60405161020291906126b7565b60405180910390f35b61022560048036038101906102209190612725565b61066b565b604051610232919061276a565b60405180910390f35b61025560048036038101906102509190612783565b61074c565b604051610262919061281e565b60405180910390f35b610273610780565b60405161028091906126b7565b60405180910390f35b610291610785565b60405161029e91906126b7565b60405180910390f35b6102c160048036038101906102bc919061283e565b61078e565b6040516102ce91906126b7565b60405180910390f35b6102f160048036038101906102ec9190612a59565b6107a3565b005b6102fb61085b565b60405161030891906126b7565b60405180910390f35b61032b6004803603810190610326919061283e565b610860565b60405161033891906126b7565b60405180910390f35b610349610875565b60405161035691906126b7565b60405180910390f35b61037960048036038101906103749190612be4565b61087a565b6040516103869190612d11565b60405180910390f35b6103a960048036038101906103a49190612783565b610984565b6040516103b6919061276a565b60405180910390f35b6103d960048036038101906103d49190612dcf565b610997565b005b6103e36109b2565b005b6103ff60048036038101906103fa919061283e565b6109c5565b60405161040f9493929190612ebb565b60405180910390f35b610420610aed565b60405161042d91906126b7565b60405180910390f35b61043e610af2565b60405161044b91906126b7565b60405180910390f35b61045c610af7565b6040516104699190612f0e565b60405180910390f35b61047a610b1f565b60405161048791906126b7565b60405180910390f35b6104aa60048036038101906104a59190612f80565b610b24565b005b6104c660048036038101906104c1919061302e565b610f13565b005b6104e260048036038101906104dd919061283e565b610f4e565b6040516104ef919061276a565b60405180910390f35b610512600480360381019061050d919061306c565b610f6b565b005b61052e60048036038101906105299190612783565b6111fd565b60405161053b91906126b7565b60405180910390f35b61055e6004803603810190610559919061302e565b611217565b005b61057a6004803603810190610575919061283e565b6112c5565b60405161058791906126b7565b60405180910390f35b6105aa60048036038101906105a591906130d0565b6112da565b6040516105b7919061276a565b60405180910390f35b6105c8611368565b6040516105d591906126b7565b60405180910390f35b6105f860048036038101906105f3919061310e565b61136d565b005b610614600480360381019061060f919061283e565b611425565b005b5f5f5f8381526020019081526020015f205f8473ffffffffffffffffffffffffffffffffffffffff1673ffffffffffffffffffffffffffffffffffffffff1681526020019081526020015f2054905092915050565b5f7fd9b67a26000000000000000000000000000000000000000000000000000000007bffffffffffffffffffffffffffffffffffffffffffffffffffffffff1916827bffffffffffffffffffffffffffffffffffffffffffffffffffffffff1916148061073557507f0e89341c000000000000000000000000000000000000000000000000000000007bffffffffffffffffffffffffffffffffffffffffffffffffffffffff1916827bffffffffffffffffffffffffffffffffffffffffffffffffffffffff1916145b806107455750610744826114a9565b5b9050919050565b6060600a61075983611512565b60405160200161076a929190613314565b6040516020818303038152906040529050919050565b600581565b5f600554905090565b6008602052805f5260405f205f915090505481565b5f73ffffffffffffffffffffffffffffffffffffffff168573ffffffffffffffffffffffffffffffffffffffff16148061080857505f73ffffffffffffffffffffffffffffffffffffffff168473ffffffffffffffffffffffffffffffffffffffff16145b610847576040517f08c379a000000000000000000000000000000000000000000000000000000000815260040161083e9061338c565b60405180910390fd5b610854858585858561166b565b5050505050565b600481565b6006602052805f5260405f205f915090505481565b600281565b606081518351146108c657815183516040517f5b0599910000000000000000000000000000000000000000000000000000000081526004016108bd9291906133aa565b60405180910390fd5b5f835167ffffffffffffffff8111156108e2576108e161286d565b5b6040519080825280602002602001820160405280156109105781602001602082028036833780820191505090505b5090505f5f90505b84518110156109795761094f610937828761171290919063ffffffff16565b61094a838761172590919063ffffffff16565b610616565b828281518110610962576109616133d1565b5b602002602001018181525050806001019050610918565b508091505092915050565b5f5f61098f836111fd565b119050919050565b61099f611738565b80600a90816109ae919061359d565b5050565b6109ba611738565b6109c35f6117bf565b565b5f5f5f6109d06125aa565b60065f8673ffffffffffffffffffffffffffffffffffffffff1673ffffffffffffffffffffffffffffffffffffffff1681526020019081526020015f2054935060075f8673ffffffffffffffffffffffffffffffffffffffff1673ffffffffffffffffffffffffffffffffffffffff1681526020019081526020015f2054925060085f8673ffffffffffffffffffffffffffffffffffffffff1673ffffffffffffffffffffffffffffffffffffffff1681526020019081526020015f205491505f5f90505b6007811015610ae5575f610ab587600184610ab09190613699565b610616565b11828260078110610ac957610ac86133d1565b5b6020020190151590811515815250508080600101915050610a95565b509193509193565b600181565b600681565b5f60035f9054906101000a900473ffffffffffffffffffffffffffffffffffffffff16905090565b600381565b60095f3373ffffffffffffffffffffffffffffffffffffffff1673ffffffffffffffffffffffffffffffffffffffff1681526020019081526020015f205f9054906101000a900460ff16610bad576040517f08c379a0000000000000000000000000000000000000000000000000000000008152600401610ba490613716565b60405180910390fd5b5f8484905067ffffffffffffffff811115610bcb57610bca61286d565b5b604051908082528060200260200182016040528015610bf95781602001602082028036833780820191505090505b5090505f5f90505f5f90505b86869050811015610d97576001878783818110610c2557610c246133d1565b5b9050602002013510158015610c5457506007878783818110610c4a57610c496133d1565b5b9050602002013511155b610c93576040517f08c379a0000000000000000000000000000000000000000000000000000000008152600401610c8a9061377e565b60405180910390fd5b60065f8973ffffffffffffffffffffffffffffffffffffffff1673ffffffffffffffffffffffffffffffffffffffff1681526020019081526020015f2054878783818110610ce457610ce36133d1565b5b9050602002013511610d2b576040517f08c379a0000000000000000000000000000000000000000000000000000000008152600401610d22906137e6565b60405180910390fd5b6001838281518110610d4057610d3f6133d1565b5b60200260200101818152505081878783818110610d6057610d5f6133d1565b5b905060200201351115610d8a57868682818110610d8057610d7f6133d1565b5b9050602002013591505b8080600101915050610c05565b50610df2878787808060200260200160405190810160405280939291908181526020018383602002808284375f81840152601f19601f820116905080830192505050505050508460405180602001604052805f815250611882565b8060065f8973ffffffffffffffffffffffffffffffffffffffff1673ffffffffffffffffffffffffffffffffffffffff1681526020019081526020015f20819055508360075f8973ffffffffffffffffffffffffffffffffffffffff1673ffffffffffffffffffffffffffffffffffffffff1681526020019081526020015f20819055508260085f8973ffffffffffffffffffffffffffffffffffffffff1673ffffffffffffffffffffffffffffffffffffffff1681526020019081526020015f20819055508673ffffffffffffffffffffffffffffffffffffffff167fc6faa96f3459f9412b6fa24cbaed439b85d1e1c7e138feaba77284af6484e422828686604051610f0293929190613804565b60405180910390a250505050505050565b6040517f08c379a0000000000000000000000000000000000000000000000000000000008152600401610f4590613883565b60405180910390fd5b6009602052805f5260405f205f915054906101000a900460ff1681565b60095f3373ffffffffffffffffffffffffffffffffffffffff1673ffffffffffffffffffffffffffffffffffffffff1681526020019081526020015f205f9054906101000a900460ff16610ff4576040517f08c379a0000000000000000000000000000000000000000000000000000000008152600401610feb90613716565b60405180910390fd5b60018310158015611006575060078311155b611045576040517f08c379a000000000000000000000000000000000000000000000000000000000815260040161103c9061377e565b60405180910390fd5b60065f8573ffffffffffffffffffffffffffffffffffffffff1673ffffffffffffffffffffffffffffffffffffffff1681526020019081526020015f205483116110c4576040517f08c379a00000000000000000000000000000000000000000000000000000000081526004016110bb90613911565b60405180910390fd5b6110df8484600160405180602001604052805f815250611905565b8260065f8673ffffffffffffffffffffffffffffffffffffffff1673ffffffffffffffffffffffffffffffffffffffff1681526020019081526020015f20819055508160075f8673ffffffffffffffffffffffffffffffffffffffff1673ffffffffffffffffffffffffffffffffffffffff1681526020019081526020015f20819055508060085f8673ffffffffffffffffffffffffffffffffffffffff1673ffffffffffffffffffffffffffffffffffffffff1681526020019081526020015f20819055508373ffffffffffffffffffffffffffffffffffffffff167fc6faa96f3459f9412b6fa24cbaed439b85d1e1c7e138feaba77284af6484e4228484846040516111ef93929190613804565b60405180910390a250505050565b5f60045f8381526020019081526020015f20549050919050565b61121f611738565b8060095f8473ffffffffffffffffffffffffffffffffffffffff1673ffffffffffffffffffffffffffffffffffffffff1681526020019081526020015f205f6101000a81548160ff0219169083151502179055508173ffffffffffffffffffffffffffffffffffffffff167fb21afb9ce9be0a676f8f317ff0ca072fb89a4f8ce2d1b6fe80f8755c14f1cb19826040516112b9919061276a565b60405180910390a25050565b6007602052805f5260405f205f915090505481565b5f60015f8473ffffffffffffffffffffffffffffffffffffffff1673ffffffffffffffffffffffffffffffffffffffff1681526020019081526020015f205f8373ffffffffffffffffffffffffffffffffffffffff1673ffffffffffffffffffffffffffffffffffffffff1681526020019081526020015f205f9054906101000a900460ff16905092915050565b600781565b5f73ffffffffffffffffffffffffffffffffffffffff168573ffffffffffffffffffffffffffffffffffffffff1614806113d257505f73ffffffffffffffffffffffffffffffffffffffff168473ffffffffffffffffffffffffffffffffffffffff16145b611411576040517f08c379a00000000000000000000000000000000000000000000000000000000081526004016114089061338c565b60405180910390fd5b61141e858585858561199a565b5050505050565b61142d611738565b5f73ffffffffffffffffffffffffffffffffffffffff168173ffffffffffffffffffffffffffffffffffffffff160361149d575f6040517f1e4fbdf70000000000000000000000000000000000000000000000000000000081526004016114949190612f0e565b60405180910390fd5b6114a6816117bf565b50565b5f7f01ffc9a7000000000000000000000000000000000000000000000000000000007bffffffffffffffffffffffffffffffffffffffffffffffffffffffff1916827bffffffffffffffffffffffffffffffffffffffffffffffffffffffff1916149050919050565b60605f8203611558576040518060400160405280600181526020017f30000000000000000000000000000000000000000000000000000000000000008152509050611666565b5f8290505f5b5f82146115875780806115709061392f565b915050600a8261158091906139a3565b915061155e565b5f8167ffffffffffffffff8111156115a2576115a161286d565b5b6040519080825280601f01601f1916602001820160405280156115d45781602001600182028036833780820191505090505b5090505b5f851461165f576001826115ec91906139d3565b9150600a856115fb9190613a06565b60306116079190613699565b60f81b81838151811061161d5761161c6133d1565b5b60200101907effffffffffffffffffffffffffffffffffffffffffffffffffffffffffffff191690815f1a905350600a8561165891906139a3565b94506115d8565b8093505050505b919050565b5f611674611a41565b90508073ffffffffffffffffffffffffffffffffffffffff168673ffffffffffffffffffffffffffffffffffffffff16141580156116b957506116b786826112da565b155b156116fd5780866040517fe237d9220000000000000000000000000000000000000000000000000000000081526004016116f4929190613a36565b60405180910390fd5b61170a8686868686611a48565b505050505050565b5f60208202602084010151905092915050565b5f60208202602084010151905092915050565b611740611a41565b73ffffffffffffffffffffffffffffffffffffffff1661175e610af7565b73ffffffffffffffffffffffffffffffffffffffff16146117bd57611781611a41565b6040517f118cdaa70000000000000000000000000000000000000000000000000000000081526004016117b49190612f0e565b60405180910390fd5b565b5f60035f9054906101000a900473ffffffffffffffffffffffffffffffffffffffff1690508160035f6101000a81548173ffffffffffffffffffffffffffffffffffffffff021916908373ffffffffffffffffffffffffffffffffffffffff1602179055508173ffffffffffffffffffffffffffffffffffffffff168173ffffffffffffffffffffffffffffffffffffffff167f8be0079c531659141344cd1fd0a4f28419497f9722a3daafe3b4186f6b6457e060405160405180910390a35050565b5f73ffffffffffffffffffffffffffffffffffffffff168473ffffffffffffffffffffffffffffffffffffffff16036118f2575f6040517f57f447ce0000000000000000000000000000000000000000000000000000000081526004016118e99190612f0e565b60405180910390fd5b6118ff5f85858585611b3c565b50505050565b5f73ffffffffffffffffffffffffffffffffffffffff168473ffffffffffffffffffffffffffffffffffffffff1603611975575f6040517f57f447ce00000000000000000000000000000000000000000000000000000000815260040161196c9190612f0e565b60405180910390fd5b5f5f6119818585611be8565b915091506119925f87848487611b3c565b505050505050565b5f6119a3611a41565b90508073ffffffffffffffffffffffffffffffffffffffff168673ffffffffffffffffffffffffffffffffffffffff16141580156119e857506119e686826112da565b155b15611a2c5780866040517fe237d922000000000000000000000000000000000000000000000000000000008152600401611a23929190613a36565b60405180910390fd5b611a398686868686611c18565b505050505050565b5f33905090565b5f73ffffffffffffffffffffffffffffffffffffffff168473ffffffffffffffffffffffffffffffffffffffff1603611ab8575f6040517f57f447ce000000000000000000000000000000000000000000000000000000008152600401611aaf9190612f0e565b60405180910390fd5b5f73ffffffffffffffffffffffffffffffffffffffff168573ffffffffffffffffffffffffffffffffffffffff1603611b28575f6040517f01a83514000000000000000000000000000000000000000000000000000000008152600401611b1f9190612f0e565b60405180910390fd5b611b358585858585611b3c565b5050505050565b611b4885858585611d1e565b5f73ffffffffffffffffffffffffffffffffffffffff168473ffffffffffffffffffffffffffffffffffffffff1614611be1575f611b84611a41565b90506001845103611bd0575f611ba35f8661172590919063ffffffff16565b90505f611bb95f8661172590919063ffffffff16565b9050611bc9838989858589611d30565b5050611bdf565b611bde818787878787611edf565b5b505b5050505050565b60608060405191506001825283602083015260408201905060018152826020820152604081016040529250929050565b5f73ffffffffffffffffffffffffffffffffffffffff168473ffffffffffffffffffffffffffffffffffffffff1603611c88575f6040517f57f447ce000000000000000000000000000000000000000000000000000000008152600401611c7f9190612f0e565b60405180910390fd5b5f73ffffffffffffffffffffffffffffffffffffffff168573ffffffffffffffffffffffffffffffffffffffff1603611cf8575f6040517f01a83514000000000000000000000000000000000000000000000000000000008152600401611cef9190612f0e565b60405180910390fd5b5f5f611d048585611be8565b91509150611d158787848487611b3c565b50505050505050565b611d2a8484848461208e565b50505050565b5f8473ffffffffffffffffffffffffffffffffffffffff163b1115611ed7578373ffffffffffffffffffffffffffffffffffffffff1663f23a6e6187878686866040518663ffffffff1660e01b8152600401611d90959493929190613aaf565b6020604051808303815f875af1925050508015611dcb57506040513d601f19601f82011682018060405250810190611dc89190613b1b565b60015b611e4c573d805f8114611df9576040519150601f19603f3d011682016040523d82523d5f602084013e611dfe565b606091505b505f815103611e4457846040517f57f447ce000000000000000000000000000000000000000000000000000000008152600401611e3b9190612f0e565b60405180910390fd5b805160208201fd5b63f23a6e6160e01b7bffffffffffffffffffffffffffffffffffffffffffffffffffffffff1916817bffffffffffffffffffffffffffffffffffffffffffffffffffffffff191614611ed557846040517f57f447ce000000000000000000000000000000000000000000000000000000008152600401611ecc9190612f0e565b60405180910390fd5b505b505050505050565b5f8473ffffffffffffffffffffffffffffffffffffffff163b1115612086578373ffffffffffffffffffffffffffffffffffffffff1663bc197c8187878686866040518663ffffffff1660e01b8152600401611f3f959493929190613b46565b6020604051808303815f875af1925050508015611f7a57506040513d601f19601f82011682018060405250810190611f779190613b1b565b60015b611ffb573d805f8114611fa8576040519150601f19603f3d011682016040523d82523d5f602084013e611fad565b606091505b505f815103611ff357846040517f57f447ce000000000000000000000000000000000000000000000000000000008152600401611fea9190612f0e565b60405180910390fd5b805160208201fd5b63bc197c8160e01b7bffffffffffffffffffffffffffffffffffffffffffffffffffffffff1916817bffffffffffffffffffffffffffffffffffffffffffffffffffffffff19161461208457846040517f57f447ce00000000000000000000000000000000000000000000000000000000815260040161207b9190612f0e565b60405180910390fd5b505b505050505050565b61209a84848484612217565b5f73ffffffffffffffffffffffffffffffffffffffff168473ffffffffffffffffffffffffffffffffffffffff1603612163575f5f90505f5f90505b8351811015612148575f6120f3828561172590919063ffffffff16565b90508060045f61210c858961172590919063ffffffff16565b81526020019081526020015f205f8282546121279190613699565b92505081905550808361213a9190613699565b9250508060010190506120d6565b508060055f82825461215a9190613699565b92505081905550505b5f73ffffffffffffffffffffffffffffffffffffffff168373ffffffffffffffffffffffffffffffffffffffff1603612211575f5f90505f5f90505b83518110156121ff575f6121bc828561172590919063ffffffff16565b90508060045f6121d5858961172590919063ffffffff16565b81526020019081526020015f205f828254039250508190555080830192505080600101905061219f565b508060055f8282540392505081905550505b50505050565b805182511461226157815181516040517f5b0599910000000000000000000000000000000000000000000000000000000081526004016122589291906133aa565b60405180910390fd5b5f61226a611a41565b90505f5f90505b8351811015612469575f61228e828661172590919063ffffffff16565b90505f6122a4838661172590919063ffffffff16565b90505f73ffffffffffffffffffffffffffffffffffffffff168873ffffffffffffffffffffffffffffffffffffffff16146123c7575f5f5f8481526020019081526020015f205f8a73ffffffffffffffffffffffffffffffffffffffff1673ffffffffffffffffffffffffffffffffffffffff1681526020019081526020015f205490508181101561237357888183856040517f03dee4c500000000000000000000000000000000000000000000000000000000815260040161236a9493929190613bac565b60405180910390fd5b8181035f5f8581526020019081526020015f205f8b73ffffffffffffffffffffffffffffffffffffffff1673ffffffffffffffffffffffffffffffffffffffff1681526020019081526020015f2081905550505b5f73ffffffffffffffffffffffffffffffffffffffff168773ffffffffffffffffffffffffffffffffffffffff161461245c57805f5f8481526020019081526020015f205f8973ffffffffffffffffffffffffffffffffffffffff1673ffffffffffffffffffffffffffffffffffffffff1681526020019081526020015f205f8282546124549190613699565b925050819055505b5050806001019050612271565b506001835103612524575f6124875f8561172590919063ffffffff16565b90505f61249d5f8561172590919063ffffffff16565b90508573ffffffffffffffffffffffffffffffffffffffff168773ffffffffffffffffffffffffffffffffffffffff168473ffffffffffffffffffffffffffffffffffffffff167fc3d58168c5ae7397731d063d5bbf3d657854427343f4c083240f7aacaa2d0f6285856040516125159291906133aa565b60405180910390a450506125a3565b8373ffffffffffffffffffffffffffffffffffffffff168573ffffffffffffffffffffffffffffffffffffffff168273ffffffffffffffffffffffffffffffffffffffff167f4a39dc06d4c0dbc64b70af90fd698a233a518aa5d07e595d983b8c0526c8f7fb868660405161259a929190613bef565b60405180910390a45b5050505050565b6040518060e00160405280600790602082028036833780820191505090505090565b5f604051905090565b5f5ffd5b5f5ffd5b5f73ffffffffffffffffffffffffffffffffffffffff82169050919050565b5f612606826125dd565b9050919050565b612616816125fc565b8114612620575f5ffd5b50565b5f813590506126318161260d565b92915050565b5f819050919050565b61264981612637565b8114612653575f5ffd5b50565b5f8135905061266481612640565b92915050565b5f5f604083850312156126805761267f6125d5565b5b5f61268d85828601612623565b925050602061269e85828601612656565b9150509250929050565b6126b181612637565b82525050565b5f6020820190506126ca5f8301846126a8565b92915050565b5f7fffffffff0000000000000000000000000000000000000000000000000000000082169050919050565b612704816126d0565b811461270e575f5ffd5b50565b5f8135905061271f816126fb565b92915050565b5f6020828403121561273a576127396125d5565b5b5f61274784828501612711565b91505092915050565b5f8115159050919050565b61276481612750565b82525050565b5f60208201905061277d5f83018461275b565b92915050565b5f60208284031215612798576127976125d5565b5b5f6127a584828501612656565b91505092915050565b5f81519050919050565b5f82825260208201905092915050565b8281835e5f83830152505050565b5f601f19601f8301169050919050565b5f6127f0826127ae565b6127fa81856127b8565b935061280a8185602086016127c8565b612813816127d6565b840191505092915050565b5f6020820190508181035f83015261283681846127e6565b905092915050565b5f60208284031215612853576128526125d5565b5b5f61286084828501612623565b91505092915050565b5f5ffd5b7f4e487b71000000000000000000000000000000000000000000000000000000005f52604160045260245ffd5b6128a3826127d6565b810181811067ffffffffffffffff821117156128c2576128c161286d565b5b80604052505050565b5f6128d46125cc565b90506128e0828261289a565b919050565b5f67ffffffffffffffff8211156128ff576128fe61286d565b5b602082029050602081019050919050565b5f5ffd5b5f612926612921846128e5565b6128cb565b9050808382526020820190506020840283018581111561294957612948612910565b5b835b81811015612972578061295e8882612656565b84526020840193505060208101905061294b565b5050509392505050565b5f82601f8301126129905761298f612869565b5b81356129a0848260208601612914565b91505092915050565b5f5ffd5b5f67ffffffffffffffff8211156129c7576129c661286d565b5b6129d0826127d6565b9050602081019050919050565b828183375f83830152505050565b5f6129fd6129f8846129ad565b6128cb565b905082815260208101848484011115612a1957612a186129a9565b5b612a248482856129dd565b509392505050565b5f82601f830112612a4057612a3f612869565b5b8135612a508482602086016129eb565b91505092915050565b5f5f5f5f5f60a08688031215612a7257612a716125d5565b5b5f612a7f88828901612623565b9550506020612a9088828901612623565b945050604086013567ffffffffffffffff811115612ab157612ab06125d9565b5b612abd8882890161297c565b935050606086013567ffffffffffffffff811115612ade57612add6125d9565b5b612aea8882890161297c565b925050608086013567ffffffffffffffff811115612b0b57612b0a6125d9565b5b612b1788828901612a2c565b9150509295509295909350565b5f67ffffffffffffffff821115612b3e57612b3d61286d565b5b602082029050602081019050919050565b5f612b61612b5c84612b24565b6128cb565b90508083825260208201905060208402830185811115612b8457612b83612910565b5b835b81811015612bad5780612b998882612623565b845260208401935050602081019050612b86565b5050509392505050565b5f82601f830112612bcb57612bca612869565b5b8135612bdb848260208601612b4f565b91505092915050565b5f5f60408385031215612bfa57612bf96125d5565b5b5f83013567ffffffffffffffff811115612c1757612c166125d9565b5b612c2385828601612bb7565b925050602083013567ffffffffffffffff811115612c4457612c436125d9565b5b612c508582860161297c565b9150509250929050565b5f81519050919050565b5f82825260208201905092915050565b5f819050602082019050919050565b612c8c81612637565b82525050565b5f612c9d8383612c83565b60208301905092915050565b5f602082019050919050565b5f612cbf82612c5a565b612cc98185612c64565b9350612cd483612c74565b805f5b83811015612d04578151612ceb8882612c92565b9750612cf683612ca9565b925050600181019050612cd7565b5085935050505092915050565b5f6020820190508181035f830152612d298184612cb5565b905092915050565b5f67ffffffffffffffff821115612d4b57612d4a61286d565b5b612d54826127d6565b9050602081019050919050565b5f612d73612d6e84612d31565b6128cb565b905082815260208101848484011115612d8f57612d8e6129a9565b5b612d9a8482856129dd565b509392505050565b5f82601f830112612db657612db5612869565b5b8135612dc6848260208601612d61565b91505092915050565b5f60208284031215612de457612de36125d5565b5b5f82013567ffffffffffffffff811115612e0157612e006125d9565b5b612e0d84828501612da2565b91505092915050565b5f60079050919050565b5f81905092915050565b5f819050919050565b612e3c81612750565b82525050565b5f612e4d8383612e33565b60208301905092915050565b5f602082019050919050565b612e6e81612e16565b612e788184612e20565b9250612e8382612e2a565b805f5b83811015612eb3578151612e9a8782612e42565b9650612ea583612e59565b925050600181019050612e86565b505050505050565b5f61014082019050612ecf5f8301876126a8565b612edc60208301866126a8565b612ee960408301856126a8565b612ef66060830184612e65565b95945050505050565b612f08816125fc565b82525050565b5f602082019050612f215f830184612eff565b92915050565b5f5ffd5b5f5f83601f840112612f4057612f3f612869565b5b8235905067ffffffffffffffff811115612f5d57612f5c612f27565b5b602083019150836020820283011115612f7957612f78612910565b5b9250929050565b5f5f5f5f5f60808688031215612f9957612f986125d5565b5b5f612fa688828901612623565b955050602086013567ffffffffffffffff811115612fc757612fc66125d9565b5b612fd388828901612f2b565b94509450506040612fe688828901612656565b9250506060612ff788828901612656565b9150509295509295909350565b61300d81612750565b8114613017575f5ffd5b50565b5f8135905061302881613004565b92915050565b5f5f60408385031215613044576130436125d5565b5b5f61305185828601612623565b92505060206130628582860161301a565b9150509250929050565b5f5f5f5f60808587031215613084576130836125d5565b5b5f61309187828801612623565b94505060206130a287828801612656565b93505060406130b387828801612656565b92505060606130c487828801612656565b91505092959194509250565b5f5f604083850312156130e6576130e56125d5565b5b5f6130f385828601612623565b925050602061310485828601612623565b9150509250929050565b5f5f5f5f5f60a08688031215613127576131266125d5565b5b5f61313488828901612623565b955050602061314588828901612623565b945050604061315688828901612656565b935050606061316788828901612656565b925050608086013567ffffffffffffffff811115613188576131876125d9565b5b61319488828901612a2c565b9150509295509295909350565b7f4e487b71000000000000000000000000000000000000000000000000000000005f52602260045260245ffd5b5f60028204905060018216806131e557607f821691505b6020821081036131f8576131f76131a1565b5b50919050565b5f81905092915050565b5f819050815f5260205f209050919050565b5f8154613226816131ce565b61323081866131fe565b9450600182165f811461324a576001811461325f57613291565b60ff1983168652811515820286019350613291565b61326885613208565b5f5b838110156132895781548189015260018201915060208101905061326a565b838801955050505b50505092915050565b5f6132a4826127ae565b6132ae81856131fe565b93506132be8185602086016127c8565b80840191505092915050565b7f2e6a736f6e0000000000000000000000000000000000000000000000000000005f82015250565b5f6132fe6005836131fe565b9150613309826132ca565b600582019050919050565b5f61331f828561321a565b915061332b828461329a565b9150613336826132f2565b91508190509392505050565b7f536f756c626f756e643a206e6f6e2d7472616e7366657261626c6500000000005f82015250565b5f613376601b836127b8565b915061338182613342565b602082019050919050565b5f6020820190508181035f8301526133a38161336a565b9050919050565b5f6040820190506133bd5f8301856126a8565b6133ca60208301846126a8565b9392505050565b7f4e487b71000000000000000000000000000000000000000000000000000000005f52603260045260245ffd5b5f6020601f8301049050919050565b5f82821b905092915050565b5f600883026134487fffffffffffffffffffffffffffffffffffffffffffffffffffffffffffffffff8261340d565b613452868361340d565b95508019841693508086168417925050509392505050565b5f819050919050565b5f61348d61348861348384612637565b61346a565b612637565b9050919050565b5f819050919050565b6134a683613473565b6134ba6134b282613494565b848454613419565b825550505050565b5f5f905090565b6134d16134c2565b6134dc81848461349d565b505050565b5f5b82811015613502576134f75f8284016134c9565b6001810190506134e3565b505050565b601f82111561355557828211156135545761352181613208565b61352a836133fe565b613533856133fe565b6020861015613540575f90505b80830161354f828403826134e1565b505050505b5b505050565b5f82821c905092915050565b5f6135755f198460080261355a565b1980831691505092915050565b5f61358d8383613566565b9150826002028217905092915050565b6135a6826127ae565b67ffffffffffffffff8111156135bf576135be61286d565b5b6135c982546131ce565b6135d4828285613507565b5f60209050601f831160018114613605575f84156135f3578287015190505b6135fd8582613582565b865550613664565b601f19841661361386613208565b5f5b8281101561363a57848901518255600182019150602085019450602081019050613615565b868310156136575784890151613653601f891682613566565b8355505b6001600288020188555050505b505050505050565b7f4e487b71000000000000000000000000000000000000000000000000000000005f52601160045260245ffd5b5f6136a382612637565b91506136ae83612637565b92508282019050808211156136c6576136c561366c565b5b92915050565b7f4e6f7420617574686f72697a656420746f206d696e74000000000000000000005f82015250565b5f6137006016836127b8565b915061370b826136cc565b602082019050919050565b5f6020820190508181035f83015261372d816136f4565b9050919050565b7f496e76616c6964207469657200000000000000000000000000000000000000005f82015250565b5f613768600c836127b8565b915061377382613734565b602082019050919050565b5f6020820190508181035f8301526137958161375c565b9050919050565b7f416c7265616479206163686965766564207469657200000000000000000000005f82015250565b5f6137d06015836127b8565b91506137db8261379c565b602082019050919050565b5f6020820190508181035f8301526137fd816137c4565b9050919050565b5f6060820190506138175f8301866126a8565b61382460208301856126a8565b61383160408301846126a8565b949350505050565b7f536f756c626f756e643a20617070726f76616c732064697361626c65640000005f82015250565b5f61386d601d836127b8565b915061387882613839565b602082019050919050565b5f6020820190508181035f83015261389a81613861565b9050919050565b7f416c726561647920616368696576656420746869732074696572206f722068695f8201527f6768657200000000000000000000000000000000000000000000000000000000602082015250565b5f6138fb6024836127b8565b9150613906826138a1565b604082019050919050565b5f6020820190508181035f830152613928816138ef565b9050919050565b5f61393982612637565b91507fffffffffffffffffffffffffffffffffffffffffffffffffffffffffffffffff820361396b5761396a61366c565b5b600182019050919050565b7f4e487b71000000000000000000000000000000000000000000000000000000005f52601260045260245ffd5b5f6139ad82612637565b91506139b883612637565b9250826139c8576139c7613976565b5b828204905092915050565b5f6139dd82612637565b91506139e883612637565b9250828203905081811115613a00576139ff61366c565b5b92915050565b5f613a1082612637565b9150613a1b83612637565b925082613a2b57613a2a613976565b5b828206905092915050565b5f604082019050613a495f830185612eff565b613a566020830184612eff565b9392505050565b5f81519050919050565b5f82825260208201905092915050565b5f613a8182613a5d565b613a8b8185613a67565b9350613a9b8185602086016127c8565b613aa4816127d6565b840191505092915050565b5f60a082019050613ac25f830188612eff565b613acf6020830187612eff565b613adc60408301866126a8565b613ae960608301856126a8565b8181036080830152613afb8184613a77565b90509695505050505050565b5f81519050613b15816126fb565b92915050565b5f60208284031215613b3057613b2f6125d5565b5b5f613b3d84828501613b07565b91505092915050565b5f60a082019050613b595f830188612eff565b613b666020830187612eff565b8181036040830152613b788186612cb5565b90508181036060830152613b8c8185612cb5565b90508181036080830152613ba08184613a77565b90509695505050505050565b5f608082019050613bbf5f830187612eff565b613bcc60208301866126a8565b613bd960408301856126a8565b613be660608301846126a8565b95945050505050565b5f6040820190508181035f830152613c078185612cb5565b90508181036020830152613c1b8184612cb5565b9050939250505056fea264697066735822122004e934c35c464f9bf1347b6c4d9b90157d4f7318e72423d4d8fbed0c6c78464e64736f6c63430008210033","linkReferences":{}},"methodIdentifiers":{"ARCHITECT()":"0fe8baf0","ASCENDANT()":"f126d714","ECHO()":"881dac8e","OPERATOR()":"983d2737","SOVEREIGN()":"8d3bc36a","SPECIALIST()":"359bbf66","TOOL()":"4c813766","authorizedMinters(address)":"aa2fe91b","balanceOf(address,uint256)":"00fdd58e","balanceOfBatch(address[],uint256[])":"4e1273f4","capabilityScore(address)":"d02d387e","completionTime(address)":"266dc7be","exists(uint256)":"4f558e79","getAgentProfile(address)":"78dc93a4","highestTier(address)":"37af608b","isApprovedForAll(address,address)":"e985e9c5","mintBadge(address,uint256,uint256,uint256)":"af525140","mintBatchBadges(address,uint256[],uint256,uint256)":"a027916e","owner()":"8da5cb5b","renounceOwnership()":"715018a6","safeBatchTransferFrom(address,address,uint256[],uint256[],bytes)":"2eb2c2d6","safeTransferFrom(address,address,uint256,uint256,bytes)":"f242432a","setApprovalForAll(address,bool)":"a22cb465","setBaseURI(string)":"55f804b3","setMinter(address,bool)":"cf456ae7","supportsInterface(bytes4)":"01ffc9a7","totalSupply()":"18160ddd","totalSupply(uint256)":"bd85b039","transferOwnership(address)":"f2fde38b","uri(uint256)":"0e89341c"},"id":0}