{"abi":[{"type":"constructor","inputs":[{"name":"_signer","type":"address","internalType":"address"}],"stateMutability":"nonpayable"},{"type":"function","name":"balanceOf","inputs":[{"name":"account","type":"address","internalType":"address"},{"name":"id","type":"uint256","internalType":"uint256"}],"outputs":[{"name":"","type":"uint256","internalType":"uint256"}],"stateMutability":"view"},{"type":"function","name":"balances","inputs":[{"name":"","type":"address","internalType":"address"},{"name":"","type":"uint256","internalType":"uint256"}],"outputs":[{"name":"","type":"uint256","internalType":"uint256"}],"stateMutability":"view"},{"type":"function","name":"capabilityScore","inputs":[{"name":"","type":"address","internalType":"address"}],"outputs":[{"name":"","type":"uint256","internalType":"uint256"}],"stateMutability":"view"},{"type":"function","name":"highestTier","inputs":[{"name":"","type":"address","internalType":"address"}],"outputs":[{"name":"","type":"uint256","internalType":"uint256"}],"stateMutability":"view"},{"type":"function","name":"mint","inputs":[{"name":"to","type":"address","internalType":"address"},{"name":"tier","type":"uint256","internalType":"uint256"},{"name":"cs","type":"uint256","internalType":"uint256"}],"outputs":[],"stateMutability":"nonpayable"},{"type":"function","name":"mintL3","inputs":[],"outputs":[],"stateMutability":"nonpayable"},{"type":"function","name":"mintWithPermit","inputs":[{"name":"tier","type":"uint256","internalType":"uint256"},{"name":"cs","type":"uint256","internalType":"uint256"},{"name":"deadline","type":"uint256","internalType":"uint256"},{"name":"signature","type":"bytes","internalType":"bytes"}],"outputs":[],"stateMutability":"nonpayable"},{"type":"function","name":"name","inputs":[],"outputs":[{"name":"","type":"string","internalType":"string"}],"stateMutability":"view"},{"type":"function","name":"owner","inputs":[],"outputs":[{"name":"","type":"address","internalType":"address"}],"stateMutability":"view"},{"type":"function","name":"setSigner","inputs":[{"name":"_signer","type":"address","internalType":"address"}],"outputs":[],"stateMutability":"nonpayable"},{"type":"function","name":"signer","inputs":[],"outputs":[{"name":"","type":"address","internalType":"address"}],"stateMutability":"view"},{"type":"function","name":"supportsInterface","inputs":[{"name":"interfaceId","type":"bytes4","internalType":"bytes4"}],"outputs":[{"name":"","type":"bool","internalType":"bool"}],"stateMutability":"pure"},{"type":"function","name":"symbol","inputs":[],"outputs":[{"name":"","type":"string","internalType":"string"}],"stateMutability":"view"},{"type":"function","name":"transferOwnership","inputs":[{"name":"newOwner","type":"address","internalType":"address"}],"outputs":[],"stateMutability":"nonpayable"},{"type":"function","name":"uri","inputs":[{"name":"id","type":"uint256","internalType":"uint256"}],"outputs":[{"name":"","type":"string","internalType":"string"}],"stateMutability":"pure"},{"type":"function","name":"usedPermits","inputs":[{"name":"","type":"bytes32","internalType":"bytes32"}],"outputs":[{"name":"","type":"bool","internalType":"bool"}],"stateMutability":"view"},{"type":"event","name":"TierAchieved","inputs":[{"name":"agent","type":"address","indexed":true,"internalType":"address"},{"name":"tier","type":"uint256","indexed":false,"internalType":"uint256"},{"name":"cs","type":"uint256","indexed":false,"internalType":"uint256"}],"anonymous":false},{"type":"event","name":"TransferSingle","inputs":[{"name":"operator","type":"address","indexed":true,"internalType":"address"},{"name":"from","type":"address","indexed":true,"internalType":"address"},{"name":"to","type":"address","indexed":true,"internalType":"address"},{"name":"id","type":"uint256","indexed":false,"internalType":"uint256"},{"name":"value","type":"uint256","indexed":false,"internalType":"uint256"}],"anonymous":false}],"bytecode":{"object":"0x60806040526040518060400160405280601181526020017f4154532043657274696669636174696f6e0000000000000000000000000000008152506000908161004891906103a7565b506040518060400160405280600881526020017f4154535f434552540000000000000000000000000000000000000000000000008152506001908161008d91906103a7565b5034801561009a57600080fd5b506040516127c13803806127c183398181016040528101906100bc91906104dc565b33600260006101000a81548173ffffffffffffffffffffffffffffffffffffffff021916908373ffffffffffffffffffffffffffffffffffffffff16021790555080600360006101000a81548173ffffffffffffffffffffffffffffffffffffffff021916908373ffffffffffffffffffffffffffffffffffffffff16021790555050610509565b600081519050919050565b7f4e487b7100000000000000000000000000000000000000000000000000000000600052604160045260246000fd5b7f4e487b7100000000000000000000000000000000000000000000000000000000600052602260045260246000fd5b600060028204905060018216806101c557607f821691505b6020821081036101d8576101d761017e565b5b50919050565b60008190508160005260206000209050919050565b60006020601f8301049050919050565b600082821b905092915050565b6000600883026102407fffffffffffffffffffffffffffffffffffffffffffffffffffffffffffffffff82610203565b61024a8683610203565b95508019841693508086168417925050509392505050565b6000819050919050565b6000819050919050565b600061029161028c61028784610262565b61026c565b610262565b9050919050565b6000819050919050565b6102ab83610276565b6102bf6102b782610298565b848454610210565b825550505050565b600090565b6102d46102c7565b6102df8184846102a2565b505050565b60005b82811015610307576102fc60008284016102cc565b6001810190506102e7565b505050565b601f82111561035b578282111561035a57610326816101de565b61032f836101f3565b610338856101f3565b602086101561034657600090505b808301610355828403826102e4565b505050505b5b505050565b600082821c905092915050565b600061037e60001984600802610360565b1980831691505092915050565b6000610397838361036d565b9150826002028217905092915050565b6103b082610144565b67ffffffffffffffff8111156103c9576103c861014f565b5b6103d382546101ad565b6103de82828561030c565b600060209050601f83116001811461041157600084156103ff578287015190505b610409858261038b565b865550610471565b601f19841661041f866101de565b60005b8281101561044757848901518255600182019150602085019450602081019050610422565b868310156104645784890151610460601f89168261036d565b8355505b6001600288020188555050505b505050505050565b600080fd5b600073ffffffffffffffffffffffffffffffffffffffff82169050919050565b60006104a98261047e565b9050919050565b6104b98161049e565b81146104c457600080fd5b50565b6000815190506104d6816104b0565b92915050565b6000602082840312156104f2576104f1610479565b5b6000610500848285016104c7565b91505092915050565b6122a9806105186000396000f3fe608060405234801561001057600080fd5b50600436106100ff5760003560e01c80634b42617b11610097578063cbf1304d11610066578063cbf1304d1461029a578063d02d387e146102ca578063e24348fb146102fa578063f2fde38b1461032a576100ff565b80634b42617b146102385780636c19e783146102425780638da5cb5b1461025e57806395d89b411461027c576100ff565b8063156e29f6116100d3578063156e29f6146101b2578063238ac933146101ce57806330ac7742146101ec57806337af608b14610208576100ff565b8062fdd58e1461010457806301ffc9a71461013457806306fdde03146101645780630e89341c14610182575b600080fd5b61011e60048036038101906101199190611437565b610346565b60405161012b9190611486565b60405180910390f35b61014e600480360381019061014991906114f9565b6103a1565b60405161015b9190611541565b60405180910390f35b61016c610403565b60405161017991906115ec565b60405180910390f35b61019c6004803603810190610197919061160e565b610491565b6040516101a991906115ec565b60405180910390f35b6101cc60048036038101906101c7919061163b565b6104c2565b005b6101d661079e565b6040516101e3919061169d565b60405180910390f35b6102066004803603810190610201919061171d565b6107c4565b005b610222600480360381019061021d91906117a5565b610c56565b60405161022f9190611486565b60405180910390f35b610240610c6e565b005b61025c600480360381019061025791906117a5565b610ea8565b005b610266610f7c565b604051610273919061169d565b60405180910390f35b610284610fa2565b60405161029191906115ec565b60405180910390f35b6102b460048036038101906102af9190611437565b611030565b6040516102c19190611486565b60405180910390f35b6102e460048036038101906102df91906117a5565b611055565b6040516102f19190611486565b60405180910390f35b610314600480360381019061030f9190611808565b61106d565b6040516103219190611541565b60405180910390f35b610344600480360381019061033f91906117a5565b61108d565b005b6000600460008473ffffffffffffffffffffffffffffffffffffffff1673ffffffffffffffffffffffffffffffffffffffff168152602001908152602001600020600083815260200190815260200160002054905092915050565b600063d9b67a2660e01b827bffffffffffffffffffffffffffffffffffffffffffffffffffffffff191614806103fc57506301ffc9a760e01b827bffffffffffffffffffffffffffffffffffffffffffffffffffffffff1916145b9050919050565b6000805461041090611864565b80601f016020809104026020016040519081016040528092919081815260200182805461043c90611864565b80156104895780601f1061045e57610100808354040283529160200191610489565b820191906000526020600020905b81548152906001019060200180831161046c57829003601f168201915b505050505081565b606061049c82611161565b6040516020016104ac9190611969565b6040516020818303038152906040529050919050565b600260009054906101000a900473ffffffffffffffffffffffffffffffffffffffff1673ffffffffffffffffffffffffffffffffffffffff163373ffffffffffffffffffffffffffffffffffffffff1614610552576040517f08c379a0000000000000000000000000000000000000000000000000000000008152600401610549906119e2565b60405180910390fd5b60028210158015610564575060078211155b6105a3576040517f08c379a000000000000000000000000000000000000000000000000000000000815260040161059a90611a4e565b60405180910390fd5b6001600460008573ffffffffffffffffffffffffffffffffffffffff1673ffffffffffffffffffffffffffffffffffffffff168152602001908152602001600020600084815260200190815260200160002081905550600560008473ffffffffffffffffffffffffffffffffffffffff1673ffffffffffffffffffffffffffffffffffffffff168152602001908152602001600020548211156106c95781600560008573ffffffffffffffffffffffffffffffffffffffff1673ffffffffffffffffffffffffffffffffffffffff1681526020019081526020016000208190555080600660008573ffffffffffffffffffffffffffffffffffffffff1673ffffffffffffffffffffffffffffffffffffffff168152602001908152602001600020819055505b8273ffffffffffffffffffffffffffffffffffffffff16600073ffffffffffffffffffffffffffffffffffffffff163373ffffffffffffffffffffffffffffffffffffffff167fc3d58168c5ae7397731d063d5bbf3d657854427343f4c083240f7aacaa2d0f62856001604051610741929190611ab3565b60405180910390a48273ffffffffffffffffffffffffffffffffffffffff167f7f8d0ff73639e80ef24f3871922914c9e56b568a07c8760437e56a6b18bbca2f8383604051610791929190611adc565b60405180910390a2505050565b600360009054906101000a900473ffffffffffffffffffffffffffffffffffffffff1681565b600485101580156107d6575060078511155b610815576040517f08c379a000000000000000000000000000000000000000000000000000000000815260040161080c90611b51565b60405180910390fd5b82421115610858576040517f08c379a000000000000000000000000000000000000000000000000000000000815260040161084f90611bbd565b60405180910390fd5b84600560003373ffffffffffffffffffffffffffffffffffffffff1673ffffffffffffffffffffffffffffffffffffffff16815260200190815260200160002054106108d9576040517f08c379a00000000000000000000000000000000000000000000000000000000081526004016108d090611c29565b60405180910390fd5b6000338686866040516020016108f29493929190611cb2565b6040516020818303038152906040528051906020012090506007600082815260200190815260200160002060009054906101000a900460ff161561096b576040517f08c379a000000000000000000000000000000000000000000000000000000000815260040161096290611d4c565b60405180910390fd5b60008160405160200161097e9190611dd9565b604051602081830303815290604052805190602001209050600360009054906101000a900473ffffffffffffffffffffffffffffffffffffffff1673ffffffffffffffffffffffffffffffffffffffff16610a1d8286868080601f016020809104026020016040519081016040528093929190818152602001838380828437600081840152601f19601f820116905080830192505050505050506112c0565b73ffffffffffffffffffffffffffffffffffffffff1614610a73576040517f08c379a0000000000000000000000000000000000000000000000000000000008152600401610a6a90611e4b565b60405180910390fd5b60016007600084815260200190815260200160002060006101000a81548160ff0219169083151502179055506001600460003373ffffffffffffffffffffffffffffffffffffffff1673ffffffffffffffffffffffffffffffffffffffff16815260200190815260200160002060008981526020019081526020016000208190555086600560003373ffffffffffffffffffffffffffffffffffffffff1673ffffffffffffffffffffffffffffffffffffffff1681526020019081526020016000208190555085600660003373ffffffffffffffffffffffffffffffffffffffff1673ffffffffffffffffffffffffffffffffffffffff168152602001908152602001600020819055503373ffffffffffffffffffffffffffffffffffffffff16600073ffffffffffffffffffffffffffffffffffffffff163373ffffffffffffffffffffffffffffffffffffffff167fc3d58168c5ae7397731d063d5bbf3d657854427343f4c083240f7aacaa2d0f628a6001604051610bf5929190611ab3565b60405180910390a43373ffffffffffffffffffffffffffffffffffffffff167f7f8d0ff73639e80ef24f3871922914c9e56b568a07c8760437e56a6b18bbca2f8888604051610c45929190611adc565b60405180910390a250505050505050565b60056020528060005260406000206000915090505481565b6003600560003373ffffffffffffffffffffffffffffffffffffffff1673ffffffffffffffffffffffffffffffffffffffff1681526020019081526020016000205410610cf0576040517f08c379a0000000000000000000000000000000000000000000000000000000008152600401610ce790611eb7565b60405180910390fd5b6001600460003373ffffffffffffffffffffffffffffffffffffffff1673ffffffffffffffffffffffffffffffffffffffff168152602001908152602001600020600060038152602001908152602001600020819055506003600560003373ffffffffffffffffffffffffffffffffffffffff1673ffffffffffffffffffffffffffffffffffffffff168152602001908152602001600020819055506102ee600660003373ffffffffffffffffffffffffffffffffffffffff1673ffffffffffffffffffffffffffffffffffffffff168152602001908152602001600020819055503373ffffffffffffffffffffffffffffffffffffffff16600073ffffffffffffffffffffffffffffffffffffffff163373ffffffffffffffffffffffffffffffffffffffff167fc3d58168c5ae7397731d063d5bbf3d657854427343f4c083240f7aacaa2d0f6260036001604051610e4b929190611f12565b60405180910390a43373ffffffffffffffffffffffffffffffffffffffff167f7f8d0ff73639e80ef24f3871922914c9e56b568a07c8760437e56a6b18bbca2f60036102ee604051610e9e929190611f76565b60405180910390a2565b600260009054906101000a900473ffffffffffffffffffffffffffffffffffffffff1673ffffffffffffffffffffffffffffffffffffffff163373ffffffffffffffffffffffffffffffffffffffff1614610f38576040517f08c379a0000000000000000000000000000000000000000000000000000000008152600401610f2f906119e2565b60405180910390fd5b80600360006101000a81548173ffffffffffffffffffffffffffffffffffffffff021916908373ffffffffffffffffffffffffffffffffffffffff16021790555050565b600260009054906101000a900473ffffffffffffffffffffffffffffffffffffffff1681565b60018054610faf90611864565b80601f0160208091040260200160405190810160405280929190818152602001828054610fdb90611864565b80156110285780601f10610ffd57610100808354040283529160200191611028565b820191906000526020600020905b81548152906001019060200180831161100b57829003601f168201915b505050505081565b6004602052816000526040600020602052806000526040600020600091509150505481565b60066020528060005260406000206000915090505481565b60076020528060005260406000206000915054906101000a900460ff1681565b600260009054906101000a900473ffffffffffffffffffffffffffffffffffffffff1673ffffffffffffffffffffffffffffffffffffffff163373ffffffffffffffffffffffffffffffffffffffff161461111d576040517f08c379a0000000000000000000000000000000000000000000000000000000008152600401611114906119e2565b60405180910390fd5b80600260006101000a81548173ffffffffffffffffffffffffffffffffffffffff021916908373ffffffffffffffffffffffffffffffffffffffff16021790555050565b6060600082036111a8576040518060400160405280600181526020017f300000000000000000000000000000000000000000000000000000000000000081525090506112bb565b600082905060005b600082146111da5780806111c390611fce565b915050600a826111d39190612045565b91506111b0565b60008167ffffffffffffffff8111156111f6576111f5612076565b5b6040519080825280601f01601f1916602001820160405280156112285781602001600182028036833780820191505090505b5090505b600085146112b457818061123f906120a5565b925050600a8561124f91906120ce565b603061125b91906120ff565b60f81b81838151811061127157611270612133565b5b60200101907effffffffffffffffffffffffffffffffffffffffffffffffffffffffffffff1916908160001a905350600a856112ad9190612045565b945061122c565b8093505050505b919050565b60006041825114611306576040517f08c379a00000000000000000000000000000000000000000000000000000000081526004016112fd906121ae565b60405180910390fd5b60008060006020850151925060408501519150606085015160001a9050601b8160ff16101561133f57601b8161133c91906121db565b90505b60018682858560405160008152602001604052604051611362949392919061222e565b6020604051602081039080840390855afa158015611384573d6000803e3d6000fd5b50505060206040510351935050505092915050565b600080fd5b600080fd5b600073ffffffffffffffffffffffffffffffffffffffff82169050919050565b60006113ce826113a3565b9050919050565b6113de816113c3565b81146113e957600080fd5b50565b6000813590506113fb816113d5565b92915050565b6000819050919050565b61141481611401565b811461141f57600080fd5b50565b6000813590506114318161140b565b92915050565b6000806040838503121561144e5761144d611399565b5b600061145c858286016113ec565b925050602061146d85828601611422565b9150509250929050565b61148081611401565b82525050565b600060208201905061149b6000830184611477565b92915050565b60007fffffffff0000000000000000000000000000000000000000000000000000000082169050919050565b6114d6816114a1565b81146114e157600080fd5b50565b6000813590506114f3816114cd565b92915050565b60006020828403121561150f5761150e611399565b5b600061151d848285016114e4565b91505092915050565b60008115159050919050565b61153b81611526565b82525050565b60006020820190506115566000830184611532565b92915050565b600081519050919050565b600082825260208201905092915050565b60005b8381101561159657808201518184015260208101905061157b565b60008484015250505050565b6000601f19601f8301169050919050565b60006115be8261155c565b6115c88185611567565b93506115d8818560208601611578565b6115e1816115a2565b840191505092915050565b6000602082019050818103600083015261160681846115b3565b905092915050565b60006020828403121561162457611623611399565b5b600061163284828501611422565b91505092915050565b60008060006060848603121561165457611653611399565b5b6000611662868287016113ec565b935050602061167386828701611422565b925050604061168486828701611422565b9150509250925092565b611697816113c3565b82525050565b60006020820190506116b2600083018461168e565b92915050565b600080fd5b600080fd5b600080fd5b60008083601f8401126116dd576116dc6116b8565b5b8235905067ffffffffffffffff8111156116fa576116f96116bd565b5b602083019150836001820283011115611716576117156116c2565b5b9250929050565b60008060008060006080868803121561173957611738611399565b5b600061174788828901611422565b955050602061175888828901611422565b945050604061176988828901611422565b935050606086013567ffffffffffffffff81111561178a5761178961139e565b5b611796888289016116c7565b92509250509295509295909350565b6000602082840312156117bb576117ba611399565b5b60006117c9848285016113ec565b91505092915050565b6000819050919050565b6117e5816117d2565b81146117f057600080fd5b50565b600081359050611802816117dc565b92915050565b60006020828403121561181e5761181d611399565b5b600061182c848285016117f3565b91505092915050565b7f4e487b7100000000000000000000000000000000000000000000000000000000600052602260045260246000fd5b6000600282049050600182168061187c57607f821691505b60208210810361188f5761188e611835565b5b50919050565b600081905092915050565b7f68747470733a2f2f6167656e74636572742e696f2f6170692f62616467652f00600082015250565b60006118d6601f83611895565b91506118e1826118a0565b601f82019050919050565b60006118f78261155c565b6119018185611895565b9350611911818560208601611578565b80840191505092915050565b7f2e6a736f6e000000000000000000000000000000000000000000000000000000600082015250565b6000611953600583611895565b915061195e8261191d565b600582019050919050565b6000611974826118c9565b915061198082846118ec565b915061198b82611946565b915081905092915050565b7f4e6f74206f776e65720000000000000000000000000000000000000000000000600082015250565b60006119cc600983611567565b91506119d782611996565b602082019050919050565b600060208201905081810360008301526119fb816119bf565b9050919050565b7f496e76616c696420746965720000000000000000000000000000000000000000600082015250565b6000611a38600c83611567565b9150611a4382611a02565b602082019050919050565b60006020820190508181036000830152611a6781611a2b565b9050919050565b6000819050919050565b6000819050919050565b6000611a9d611a98611a9384611a6e565b611a78565b611401565b9050919050565b611aad81611a82565b82525050565b6000604082019050611ac86000830185611477565b611ad56020830184611aa4565b9392505050565b6000604082019050611af16000830185611477565b611afe6020830184611477565b9392505050565b7f557365206d696e744c3320666f72204c33000000000000000000000000000000600082015250565b6000611b3b601183611567565b9150611b4682611b05565b602082019050919050565b60006020820190508181036000830152611b6a81611b2e565b9050919050565b7f5065726d69742065787069726564000000000000000000000000000000000000600082015250565b6000611ba7600e83611567565b9150611bb282611b71565b602082019050919050565b60006020820190508181036000830152611bd681611b9a565b9050919050565b7f416c72656164792068617320657175616c206f72206869676865722074696572600082015250565b6000611c13602083611567565b9150611c1e82611bdd565b602082019050919050565b60006020820190508181036000830152611c4281611c06565b9050919050565b60008160601b9050919050565b6000611c6182611c49565b9050919050565b6000611c7382611c56565b9050919050565b611c8b611c86826113c3565b611c68565b82525050565b6000819050919050565b611cac611ca782611401565b611c91565b82525050565b6000611cbe8287611c7a565b601482019150611cce8286611c9b565b602082019150611cde8285611c9b565b602082019150611cee8284611c9b565b60208201915081905095945050505050565b7f5065726d697420616c7265616479207573656400000000000000000000000000600082015250565b6000611d36601383611567565b9150611d4182611d00565b602082019050919050565b60006020820190508181036000830152611d6581611d29565b9050919050565b7f19457468657265756d205369676e6564204d6573736167653a0a333200000000600082015250565b6000611da2601c83611895565b9150611dad82611d6c565b601c82019050919050565b6000819050919050565b611dd3611dce826117d2565b611db8565b82525050565b6000611de482611d95565b9150611df08284611dc2565b60208201915081905092915050565b7f496e76616c6964207065726d6974000000000000000000000000000000000000600082015250565b6000611e35600e83611567565b9150611e4082611dff565b602082019050919050565b60006020820190508181036000830152611e6481611e28565b9050919050565b7f416c7265616479204c33206f7220686967686572000000000000000000000000600082015250565b6000611ea1601483611567565b9150611eac82611e6b565b602082019050919050565b60006020820190508181036000830152611ed081611e94565b9050919050565b6000819050919050565b6000611efc611ef7611ef284611ed7565b611a78565b611401565b9050919050565b611f0c81611ee1565b82525050565b6000604082019050611f276000830185611f03565b611f346020830184611aa4565b9392505050565b6000819050919050565b6000611f60611f5b611f5684611f3b565b611a78565b611401565b9050919050565b611f7081611f45565b82525050565b6000604082019050611f8b6000830185611f03565b611f986020830184611f67565b9392505050565b7f4e487b7100000000000000000000000000000000000000000000000000000000600052601160045260246000fd5b6000611fd982611401565b91507fffffffffffffffffffffffffffffffffffffffffffffffffffffffffffffffff820361200b5761200a611f9f565b5b600182019050919050565b7f4e487b7100000000000000000000000000000000000000000000000000000000600052601260045260246000fd5b600061205082611401565b915061205b83611401565b92508261206b5761206a612016565b5b828204905092915050565b7f4e487b7100000000000000000000000000000000000000000000000000000000600052604160045260246000fd5b60006120b082611401565b9150600082036120c3576120c2611f9f565b5b600182039050919050565b60006120d982611401565b91506120e483611401565b9250826120f4576120f3612016565b5b828206905092915050565b600061210a82611401565b915061211583611401565b925082820190508082111561212d5761212c611f9f565b5b92915050565b7f4e487b7100000000000000000000000000000000000000000000000000000000600052603260045260246000fd5b7f496e76616c696420736967206c656e6774680000000000000000000000000000600082015250565b6000612198601283611567565b91506121a382612162565b602082019050919050565b600060208201905081810360008301526121c78161218b565b9050919050565b600060ff82169050919050565b60006121e6826121ce565b91506121f1836121ce565b9250828201905060ff81111561220a57612209611f9f565b5b92915050565b612219816117d2565b82525050565b612228816121ce565b82525050565b60006080820190506122436000830187612210565b612250602083018661221f565b61225d6040830185612210565b61226a6060830184612210565b9594505050505056fea2646970667358221220b38589842bb4b70777d77f0104ada90f0f0793ae2da9f71e2248448f527b7b9f64736f6c63430008210033","linkReferences":{}},"methodIdentifiers":{"balanceOf(address,uint256)":"00fdd58e","balances(address,uint256)":"cbf1304d","capabilityScore(address)":"d02d387e","highestTier(address)":"37af608b","mint(address,uint256,uint256)":"156e29f6","mintL3()":"4b42617b","mintWithPermit(uint256,uint256,uint256,bytes)":"30ac7742","name()":"06fdde03","owner()":"8da5cb5b","setSigner(address)":"6c19e783","signer()":"238ac933","supportsInterface(bytes4)":"01ffc9a7","symbol()":"95d89b41","transferOwnership(address)":"f2fde38b","uri(uint256)":"0e89341c","usedPermits(bytes32)":"e24348fb"},"id":0}