{"abi":[{"type":"constructor","inputs":[{"name":"_platformSigner","type":"address","internalType":"address"}],"stateMutability":"nonpayable"},{"type":"function","name":"bindExisting","inputs":[{"name":"limboId","type":"uint256","internalType":"uint256"},{"name":"nftContract","type":"address","internalType":"address"},{"name":"tokenId","type":"uint256","internalType":"uint256"}],"outputs":[],"stateMutability":"nonpayable"},{"type":"function","name":"bindNew","inputs":[{"name":"nftContract","type":"address","internalType":"address"},{"name":"tokenId","type":"uint256","internalType":"uint256"},{"name":"modelHash","type":"bytes32","internalType":"bytes32"},{"name":"memoryHash","type":"bytes32","internalType":"bytes32"},{"name":"contextHash","type":"bytes32","internalType":"bytes32"}],"outputs":[],"stateMutability":"nonpayable"},{"type":"function","name":"bindWithApproval","inputs":[{"name":"nftContract","type":"address","internalType":"address"},{"name":"tokenId","type":"uint256","internalType":"uint256"},{"name":"modelHash","type":"bytes32","internalType":"bytes32"},{"name":"memoryHash","type":"bytes32","internalType":"bytes32"},{"name":"contextHash","type":"bytes32","internalType":"bytes32"},{"name":"ownerSignature","type":"bytes","internalType":"bytes"}],"outputs":[],"stateMutability":"nonpayable"},{"type":"function","name":"canClone","inputs":[{"name":"nftContract","type":"address","internalType":"address"},{"name":"tokenId","type":"uint256","internalType":"uint256"}],"outputs":[{"name":"","type":"bool","internalType":"bool"}],"stateMutability":"view"},{"type":"function","name":"claimClone","inputs":[{"name":"cloneId","type":"uint256","internalType":"uint256"},{"name":"agentEOA","type":"address","internalType":"address"}],"outputs":[],"stateMutability":"nonpayable"},{"type":"function","name":"clone","inputs":[{"name":"nftContract","type":"address","internalType":"address"},{"name":"tokenId","type":"uint256","internalType":"uint256"},{"name":"cloneMemoryHash","type":"bytes32","internalType":"bytes32"},{"name":"cloneOwner","type":"address","internalType":"address"}],"outputs":[{"name":"cloneId","type":"uint256","internalType":"uint256"}],"stateMutability":"payable"},{"type":"function","name":"cloningFee","inputs":[],"outputs":[{"name":"","type":"uint256","internalType":"uint256"}],"stateMutability":"view"},{"type":"function","name":"eoaToKey","inputs":[{"name":"","type":"address","internalType":"address"}],"outputs":[{"name":"","type":"bytes32","internalType":"bytes32"}],"stateMutability":"view"},{"type":"function","name":"getAgent","inputs":[{"name":"nftContract","type":"address","internalType":"address"},{"name":"tokenId","type":"uint256","internalType":"uint256"}],"outputs":[{"name":"","type":"tuple","internalType":"struct AINFTRegistry.AgentIdentity","components":[{"name":"agentEOA","type":"address","internalType":"address"},{"name":"modelHash","type":"bytes32","internalType":"bytes32"},{"name":"memoryHash","type":"bytes32","internalType":"bytes32"},{"name":"contextHash","type":"bytes32","internalType":"bytes32"},{"name":"generation","type":"uint256","internalType":"uint256"},{"name":"parentKey","type":"bytes32","internalType":"bytes32"},{"name":"storageURI","type":"string","internalType":"string"},{"name":"registeredAt","type":"uint256","internalType":"uint256"}]}],"stateMutability":"view"},{"type":"function","name":"getAgentByEOA","inputs":[{"name":"eoa","type":"address","internalType":"address"}],"outputs":[{"name":"key","type":"bytes32","internalType":"bytes32"}],"stateMutability":"view"},{"type":"function","name":"getClone","inputs":[{"name":"cloneId","type":"uint256","internalType":"uint256"}],"outputs":[{"name":"","type":"tuple","internalType":"struct AINFTRegistry.CloneIdentity","components":[{"name":"agentEOA","type":"address","internalType":"address"},{"name":"modelHash","type":"bytes32","internalType":"bytes32"},{"name":"memoryHash","type":"bytes32","internalType":"bytes32"},{"name":"contextHash","type":"bytes32","internalType":"bytes32"},{"name":"generation","type":"uint256","internalType":"uint256"},{"name":"parentKey","type":"bytes32","internalType":"bytes32"},{"name":"storageURI","type":"string","internalType":"string"},{"name":"owner","type":"address","internalType":"address"},{"name":"createdAt","type":"uint256","internalType":"uint256"}]}],"stateMutability":"view"},{"type":"function","name":"isRegistered","inputs":[{"name":"nftContract","type":"address","internalType":"address"},{"name":"tokenId","type":"uint256","internalType":"uint256"}],"outputs":[{"name":"","type":"bool","internalType":"bool"}],"stateMutability":"view"},{"type":"function","name":"openRegistration","inputs":[],"outputs":[{"name":"","type":"bool","internalType":"bool"}],"stateMutability":"view"},{"type":"function","name":"ownerOf","inputs":[{"name":"nftContract","type":"address","internalType":"address"},{"name":"tokenId","type":"uint256","internalType":"uint256"}],"outputs":[{"name":"","type":"address","internalType":"address"}],"stateMutability":"view"},{"type":"function","name":"platformSigner","inputs":[],"outputs":[{"name":"","type":"address","internalType":"address"}],"stateMutability":"view"},{"type":"function","name":"rebind","inputs":[{"name":"nftContract","type":"address","internalType":"address"},{"name":"tokenId","type":"uint256","internalType":"uint256"},{"name":"newAgentEOA","type":"address","internalType":"address"},{"name":"ownerSignature","type":"bytes","internalType":"bytes"}],"outputs":[],"stateMutability":"nonpayable"},{"type":"function","name":"setCloning","inputs":[{"name":"nftContract","type":"address","internalType":"address"},{"name":"tokenId","type":"uint256","internalType":"uint256"},{"name":"enabled","type":"bool","internalType":"bool"}],"outputs":[],"stateMutability":"nonpayable"},{"type":"function","name":"setCloningFee","inputs":[{"name":"fee","type":"uint256","internalType":"uint256"}],"outputs":[],"stateMutability":"nonpayable"},{"type":"function","name":"setOpenRegistration","inputs":[{"name":"open","type":"bool","internalType":"bool"}],"outputs":[],"stateMutability":"nonpayable"},{"type":"function","name":"transferCloneClaim","inputs":[{"name":"cloneId","type":"uint256","internalType":"uint256"},{"name":"newOwner","type":"address","internalType":"address"}],"outputs":[],"stateMutability":"nonpayable"},{"type":"function","name":"unbind","inputs":[{"name":"nftContract","type":"address","internalType":"address"},{"name":"tokenId","type":"uint256","internalType":"uint256"}],"outputs":[],"stateMutability":"nonpayable"},{"type":"function","name":"updateMemory","inputs":[{"name":"nftContract","type":"address","internalType":"address"},{"name":"tokenId","type":"uint256","internalType":"uint256"},{"name":"newMemoryHash","type":"bytes32","internalType":"bytes32"},{"name":"newStorageURI","type":"string","internalType":"string"}],"outputs":[],"stateMutability":"nonpayable"},{"type":"function","name":"withdrawFees","inputs":[],"outputs":[],"stateMutability":"nonpayable"},{"type":"event","name":"AgentCloned","inputs":[{"name":"parentContract","type":"address","indexed":true,"internalType":"address"},{"name":"parentTokenId","type":"uint256","indexed":true,"internalType":"uint256"},{"name":"cloneEOA","type":"address","indexed":true,"internalType":"address"},{"name":"cloneId","type":"uint256","indexed":false,"internalType":"uint256"},{"name":"generation","type":"uint256","indexed":false,"internalType":"uint256"}],"anonymous":false},{"type":"event","name":"AgentMovedToLimbo","inputs":[{"name":"nftContract","type":"address","indexed":true,"internalType":"address"},{"name":"tokenId","type":"uint256","indexed":true,"internalType":"uint256"},{"name":"limboId","type":"uint256","indexed":false,"internalType":"uint256"},{"name":"agentEOA","type":"address","indexed":false,"internalType":"address"}],"anonymous":false},{"type":"event","name":"AgentRegistered","inputs":[{"name":"nftContract","type":"address","indexed":true,"internalType":"address"},{"name":"tokenId","type":"uint256","indexed":true,"internalType":"uint256"},{"name":"agentEOA","type":"address","indexed":true,"internalType":"address"},{"name":"modelHash","type":"bytes32","indexed":false,"internalType":"bytes32"},{"name":"generation","type":"uint256","indexed":false,"internalType":"uint256"}],"anonymous":false},{"type":"event","name":"AgentUnregistered","inputs":[{"name":"nftContract","type":"address","indexed":true,"internalType":"address"},{"name":"tokenId","type":"uint256","indexed":true,"internalType":"uint256"}],"anonymous":false},{"type":"event","name":"CloneClaimTransferred","inputs":[{"name":"cloneId","type":"uint256","indexed":true,"internalType":"uint256"},{"name":"from","type":"address","indexed":true,"internalType":"address"},{"name":"to","type":"address","indexed":true,"internalType":"address"}],"anonymous":false},{"type":"event","name":"MemoryUpdated","inputs":[{"name":"nftContract","type":"address","indexed":true,"internalType":"address"},{"name":"tokenId","type":"uint256","indexed":true,"internalType":"uint256"},{"name":"newMemoryHash","type":"bytes32","indexed":false,"internalType":"bytes32"}],"anonymous":false}],"bytecode":{"object":"0x608060405234801561000f575f5ffd5b50604051614ec6380380614ec6833981810160405281019061003191906100ef565b8060055f6101000a81548173ffffffffffffffffffffffffffffffffffffffff021916908373ffffffffffffffffffffffffffffffffffffffff160217905550600160075f6101000a81548160ff0219169083151502179055505061011a565b5f5ffd5b5f73ffffffffffffffffffffffffffffffffffffffff82169050919050565b5f6100be82610095565b9050919050565b6100ce816100b4565b81146100d8575f5ffd5b50565b5f815190506100e9816100c5565b92915050565b5f6020828403121561010457610103610091565b5b5f610111848285016100db565b91505092915050565b614d9f806101275f395ff3fe60806040526004361061013f575f3560e01c8063a6f7f267116100b5578063d3fc38d51161006e578063d3fc38d514610455578063d440421914610491578063df8e0b4e146104bb578063fb588ac3146104e3578063ff7a5ce81461050b578063ff8cf0ed146105335761013f565b8063a6f7f2671461034d578063a8f1602c14610375578063ba92ddbc146103b1578063c147e09f146103db578063d06e4ee714610403578063d1bfbf031461042d5761013f565b8063476343ee11610107578063476343ee1461025b57806352d6a74b146102715780635f5fda1a146102ad5780637960d9bb146102d557806379fc4e0c146102fd57806380cf1a80146103255761013f565b80630233ccad14610143578063047ad5681461017f5780631f29d2dc146101bb5780632aedfdb2146101f757806332cc77f514610233575b5f5ffd5b34801561014e575f5ffd5b5061016960048036038101906101649190613363565b610563565b60405161017691906133bb565b60405180910390f35b34801561018a575f5ffd5b506101a560048036038101906101a091906133d4565b610601565b6040516101b29190613417565b60405180910390f35b3480156101c6575f5ffd5b506101e160048036038101906101dc9190613363565b610647565b6040516101ee919061343f565b60405180910390f35b348015610202575f5ffd5b5061021d60048036038101906102189190613458565b6106c8565b60405161022a91906135e2565b60405180910390f35b34801561023e575f5ffd5b5061025960048036038101906102549190613602565b610869565b005b348015610266575f5ffd5b5061026f610b84565b005b34801561027c575f5ffd5b50610297600480360381019061029291906133d4565b610cdf565b6040516102a49190613417565b60405180910390f35b3480156102b8575f5ffd5b506102d360048036038101906102ce919061366a565b610cf4565b005b3480156102e0575f5ffd5b506102fb60048036038101906102f69190613363565b610e19565b005b348015610308575f5ffd5b50610323600480360381019061031e9190613745565b6113ef565b005b348015610330575f5ffd5b5061034b6004803603810190610346919061381e565b61152d565b005b348015610358575f5ffd5b50610373600480360381019061036e91906138c8565b61197a565b005b348015610380575f5ffd5b5061039b60048036038101906103969190613363565b611a25565b6040516103a891906133bb565b60405180910390f35b3480156103bc575f5ffd5b506103c5611a98565b6040516103d2919061343f565b60405180910390f35b3480156103e6575f5ffd5b5061040160048036038101906103fc9190613458565b611abd565b005b34801561040e575f5ffd5b50610417611b56565b60405161042491906133bb565b60405180910390f35b348015610438575f5ffd5b50610453600480360381019061044e91906138f3565b611b68565b005b348015610460575f5ffd5b5061047b60048036038101906104769190613363565b612137565b60405161048891906139f0565b60405180910390f35b34801561049c575f5ffd5b506104a561228c565b6040516104b29190613a1f565b60405180910390f35b3480156104c6575f5ffd5b506104e160048036038101906104dc9190613a38565b612292565b005b3480156104ee575f5ffd5b5061050960048036038101906105049190613602565b61269e565b005b348015610516575f5ffd5b50610531600480360381019061052c9190613aaf565b612899565b005b61054d60048036038101906105489190613b33565b612c7c565b60405161055a9190613a1f565b60405180910390f35b5f5f61056f848461304f565b90505f73ffffffffffffffffffffffffffffffffffffffff165f5f8381526020019081526020015f205f015f9054906101000a900473ffffffffffffffffffffffffffffffffffffffff1673ffffffffffffffffffffffffffffffffffffffff16141580156105f8575060045f8281526020019081526020015f205f9054906101000a900460ff165b91505092915050565b5f60015f8373ffffffffffffffffffffffffffffffffffffffff1673ffffffffffffffffffffffffffffffffffffffff1681526020019081526020015f20549050919050565b5f8273ffffffffffffffffffffffffffffffffffffffff16636352211e836040518263ffffffff1660e01b81526004016106819190613a1f565b602060405180830381865afa15801561069c573d5f5f3e3d5ffd5b505050506040513d601f19601f820116820180604052508101906106c09190613bab565b905092915050565b6106d06131b3565b60025f8381526020019081526020015f20604051806101200160405290815f82015f9054906101000a900473ffffffffffffffffffffffffffffffffffffffff1673ffffffffffffffffffffffffffffffffffffffff1673ffffffffffffffffffffffffffffffffffffffff168152602001600182015481526020016002820154815260200160038201548152602001600482015481526020016005820154815260200160068201805461078390613c03565b80601f01602080910402602001604051908101604052809291908181526020018280546107af90613c03565b80156107fa5780601f106107d1576101008083540402835291602001916107fa565b820191905f5260205f20905b8154815290600101906020018083116107dd57829003601f168201915b50505050508152602001600782015f9054906101000a900473ffffffffffffffffffffffffffffffffffffffff1673ffffffffffffffffffffffffffffffffffffffff1673ffffffffffffffffffffffffffffffffffffffff1681526020016008820154815250509050919050565b5f60025f8481526020019081526020015f2090505f8160080154116108c3576040517f08c379a00000000000000000000000000000000000000000000000000000000081526004016108ba90613c8d565b60405180910390fd5b806007015f9054906101000a900473ffffffffffffffffffffffffffffffffffffffff1673ffffffffffffffffffffffffffffffffffffffff163373ffffffffffffffffffffffffffffffffffffffff1614610954576040517f08c379a000000000000000000000000000000000000000000000000000000000815260040161094b90613cf5565b60405180910390fd5b5f73ffffffffffffffffffffffffffffffffffffffff16815f015f9054906101000a900473ffffffffffffffffffffffffffffffffffffffff1673ffffffffffffffffffffffffffffffffffffffff16146109e4576040517f08c379a00000000000000000000000000000000000000000000000000000000081526004016109db90613d5d565b60405180910390fd5b5f5f1b60015f8473ffffffffffffffffffffffffffffffffffffffff1673ffffffffffffffffffffffffffffffffffffffff1681526020019081526020015f205414610a65576040517f08c379a0000000000000000000000000000000000000000000000000000000008152600401610a5c90613dc5565b60405180910390fd5b81815f015f6101000a81548173ffffffffffffffffffffffffffffffffffffffff021916908373ffffffffffffffffffffffffffffffffffffffff1602179055505f83604051602001610ab89190613e57565b6040516020818303038152906040528051906020012090508060015f8573ffffffffffffffffffffffffffffffffffffffff1673ffffffffffffffffffffffffffffffffffffffff1681526020019081526020015f20819055508273ffffffffffffffffffffffffffffffffffffffff16845f73ffffffffffffffffffffffffffffffffffffffff167f4f88e421cd17c3a91fefd97ef7eb8e8e2ea60d788568809fef19ba279f569aff878660040154604051610b76929190613e7c565b60405180910390a450505050565b60055f9054906101000a900473ffffffffffffffffffffffffffffffffffffffff1673ffffffffffffffffffffffffffffffffffffffff163373ffffffffffffffffffffffffffffffffffffffff1614610c13576040517f08c379a0000000000000000000000000000000000000000000000000000000008152600401610c0a90613eed565b60405180910390fd5b5f60055f9054906101000a900473ffffffffffffffffffffffffffffffffffffffff1673ffffffffffffffffffffffffffffffffffffffff1647604051610c5990613f38565b5f6040518083038185875af1925050503d805f8114610c93576040519150601f19603f3d011682016040523d82523d5f602084013e610c98565b606091505b5050905080610cdc576040517f08c379a0000000000000000000000000000000000000000000000000000000008152600401610cd390613f96565b60405180910390fd5b50565b6001602052805f5260405f205f915090505481565b5f8373ffffffffffffffffffffffffffffffffffffffff16636352211e846040518263ffffffff1660e01b8152600401610d2e9190613a1f565b602060405180830381865afa158015610d49573d5f5f3e3d5ffd5b505050506040513d601f19601f82011682018060405250810190610d6d9190613bab565b90508073ffffffffffffffffffffffffffffffffffffffff163373ffffffffffffffffffffffffffffffffffffffff1614610ddd576040517f08c379a0000000000000000000000000000000000000000000000000000000008152600401610dd490613ffe565b60405180910390fd5b5f610de8858561304f565b90508260045f8381526020019081526020015f205f6101000a81548160ff0219169083151502179055505050505050565b5f8273ffffffffffffffffffffffffffffffffffffffff16636352211e836040518263ffffffff1660e01b8152600401610e539190613a1f565b602060405180830381865afa158015610e6e573d5f5f3e3d5ffd5b505050506040513d601f19601f82011682018060405250810190610e929190613bab565b90508073ffffffffffffffffffffffffffffffffffffffff163373ffffffffffffffffffffffffffffffffffffffff1614610f02576040517f08c379a0000000000000000000000000000000000000000000000000000000008152600401610ef990613ffe565b60405180910390fd5b5f610f0d848461304f565b90505f5f5f8381526020019081526020015f20604051806101000160405290815f82015f9054906101000a900473ffffffffffffffffffffffffffffffffffffffff1673ffffffffffffffffffffffffffffffffffffffff1673ffffffffffffffffffffffffffffffffffffffff1681526020016001820154815260200160028201548152602001600382015481526020016004820154815260200160058201548152602001600682018054610fc290613c03565b80601f0160208091040260200160405190810160405280929190818152602001828054610fee90613c03565b80156110395780601f1061101057610100808354040283529160200191611039565b820191905f5260205f20905b81548152906001019060200180831161101c57829003601f168201915b5050505050815260200160078201548152505090505f73ffffffffffffffffffffffffffffffffffffffff16815f015173ffffffffffffffffffffffffffffffffffffffff16036110bf576040517f08c379a00000000000000000000000000000000000000000000000000000000081526004016110b690614066565b60405180910390fd5b5f60035f81546110ce906140b1565b9190508190559050604051806101200160405280835f015173ffffffffffffffffffffffffffffffffffffffff168152602001836020015181526020018360400151815260200183606001518152602001836080015181526020018360a0015181526020018360c0015181526020018573ffffffffffffffffffffffffffffffffffffffff1681526020014281525060025f8381526020019081526020015f205f820151815f015f6101000a81548173ffffffffffffffffffffffffffffffffffffffff021916908373ffffffffffffffffffffffffffffffffffffffff1602179055506020820151816001015560408201518160020155606082015181600301556080820151816004015560a0820151816005015560c08201518160060190816111f991906142d6565b5060e0820151816007015f6101000a81548173ffffffffffffffffffffffffffffffffffffffff021916908373ffffffffffffffffffffffffffffffffffffffff16021790555061010082015181600801559050505f816040516020016112609190613e57565b6040516020818303038152906040528051906020012090508060015f855f015173ffffffffffffffffffffffffffffffffffffffff1673ffffffffffffffffffffffffffffffffffffffff1681526020019081526020015f20819055505f5f8581526020019081526020015f205f5f82015f6101000a81549073ffffffffffffffffffffffffffffffffffffffff0219169055600182015f9055600282015f9055600382015f9055600482015f9055600582015f9055600682015f6113259190613223565b600782015f9055505060045f8581526020019081526020015f205f6101000a81549060ff0219169055858773ffffffffffffffffffffffffffffffffffffffff167ff0a1214ef5ae8963b4589231f47cc936d51c90495de03083c6551ff2f5120f4860405160405180910390a3858773ffffffffffffffffffffffffffffffffffffffff167f63e67e3adff3b64d915bcc635d4f100e03a9580fd473ec185005c494857908fe84865f01516040516113de9291906143a5565b60405180910390a350505050505050565b5f6113fa868661304f565b90503373ffffffffffffffffffffffffffffffffffffffff165f5f8381526020019081526020015f205f015f9054906101000a900473ffffffffffffffffffffffffffffffffffffffff1673ffffffffffffffffffffffffffffffffffffffff161461149b576040517f08c379a000000000000000000000000000000000000000000000000000000000815260040161149290614416565b60405180910390fd5b835f5f8381526020019081526020015f206002018190555082825f5f8481526020019081526020015f2060060191826114d592919061443e565b50848673ffffffffffffffffffffffffffffffffffffffff167fb89ac5950aca4d217be5fac659fc4d508f4e54e734f0e1b3f23bc436b472906a8660405161151d9190613417565b60405180910390a3505050505050565b5f611538888861304f565b90505f73ffffffffffffffffffffffffffffffffffffffff165f5f8381526020019081526020015f205f015f9054906101000a900473ffffffffffffffffffffffffffffffffffffffff1673ffffffffffffffffffffffffffffffffffffffff16146115d9576040517f08c379a00000000000000000000000000000000000000000000000000000000081526004016115d090614555565b60405180910390fd5b5f5f1b60015f3373ffffffffffffffffffffffffffffffffffffffff1673ffffffffffffffffffffffffffffffffffffffff1681526020019081526020015f20541461165a576040517f08c379a000000000000000000000000000000000000000000000000000000000815260040161165190613dc5565b60405180910390fd5b5f8873ffffffffffffffffffffffffffffffffffffffff16636352211e896040518263ffffffff1660e01b81526004016116949190613a1f565b602060405180830381865afa1580156116af573d5f5f3e3d5ffd5b505050506040513d601f19601f820116820180604052508101906116d39190613bab565b90505f8989338a6040516020016116ed9493929190614622565b6040516020818303038152906040528051906020012090506117538186868080601f0160208091040260200160405190810160405280939291908181526020018383808284375f81840152601f19601f8201169050808301925050505050505084613081565b611792576040517f08c379a0000000000000000000000000000000000000000000000000000000008152600401611789906146c4565b60405180910390fd5b6040518061010001604052803373ffffffffffffffffffffffffffffffffffffffff1681526020018981526020018881526020018781526020015f81526020015f5f1b815260200160405180602001604052805f8152508152602001428152505f5f8581526020019081526020015f205f820151815f015f6101000a81548173ffffffffffffffffffffffffffffffffffffffff021916908373ffffffffffffffffffffffffffffffffffffffff1602179055506020820151816001015560408201518160020155606082015181600301556080820151816004015560a0820151816005015560c082015181600601908161188d91906142d6565b5060e082015181600701559050508260015f3373ffffffffffffffffffffffffffffffffffffffff1673ffffffffffffffffffffffffffffffffffffffff1681526020019081526020015f2081905550600160045f8581526020019081526020015f205f6101000a81548160ff0219169083151502179055503373ffffffffffffffffffffffffffffffffffffffff16898b73ffffffffffffffffffffffffffffffffffffffff167f95c552b85d8b617036af79675b72be153f604fd7e75d1c3cde800c82569ce1b78b5f60405161196692919061471b565b60405180910390a450505050505050505050565b60055f9054906101000a900473ffffffffffffffffffffffffffffffffffffffff1673ffffffffffffffffffffffffffffffffffffffff163373ffffffffffffffffffffffffffffffffffffffff1614611a09576040517f08c379a0000000000000000000000000000000000000000000000000000000008152600401611a0090613eed565b60405180910390fd5b8060075f6101000a81548160ff02191690831515021790555050565b5f5f73ffffffffffffffffffffffffffffffffffffffff165f5f611a49868661304f565b81526020019081526020015f205f015f9054906101000a900473ffffffffffffffffffffffffffffffffffffffff1673ffffffffffffffffffffffffffffffffffffffff161415905092915050565b60055f9054906101000a900473ffffffffffffffffffffffffffffffffffffffff1681565b60055f9054906101000a900473ffffffffffffffffffffffffffffffffffffffff1673ffffffffffffffffffffffffffffffffffffffff163373ffffffffffffffffffffffffffffffffffffffff1614611b4c576040517f08c379a0000000000000000000000000000000000000000000000000000000008152600401611b4390613eed565b60405180910390fd5b8060068190555050565b60075f9054906101000a900460ff1681565b5f60025f8581526020019081526020015f2090505f816008015411611bc2576040517f08c379a0000000000000000000000000000000000000000000000000000000008152600401611bb99061478c565b60405180910390fd5b806007015f9054906101000a900473ffffffffffffffffffffffffffffffffffffffff1673ffffffffffffffffffffffffffffffffffffffff163373ffffffffffffffffffffffffffffffffffffffff1614611c53576040517f08c379a0000000000000000000000000000000000000000000000000000000008152600401611c4a906147f4565b60405180910390fd5b5f8373ffffffffffffffffffffffffffffffffffffffff16636352211e846040518263ffffffff1660e01b8152600401611c8d9190613a1f565b602060405180830381865afa158015611ca8573d5f5f3e3d5ffd5b505050506040513d601f19601f82011682018060405250810190611ccc9190613bab565b90508073ffffffffffffffffffffffffffffffffffffffff163373ffffffffffffffffffffffffffffffffffffffff1614611d3c576040517f08c379a0000000000000000000000000000000000000000000000000000000008152600401611d339061485c565b60405180910390fd5b5f611d47858561304f565b90505f73ffffffffffffffffffffffffffffffffffffffff165f5f8381526020019081526020015f205f015f9054906101000a900473ffffffffffffffffffffffffffffffffffffffff1673ffffffffffffffffffffffffffffffffffffffff1614611de8576040517f08c379a0000000000000000000000000000000000000000000000000000000008152600401611ddf906148c4565b60405180910390fd5b604051806101000160405280845f015f9054906101000a900473ffffffffffffffffffffffffffffffffffffffff1673ffffffffffffffffffffffffffffffffffffffff1681526020018460010154815260200184600201548152602001846003015481526020018460040154815260200184600501548152602001846006018054611e7390613c03565b80601f0160208091040260200160405190810160405280929190818152602001828054611e9f90613c03565b8015611eea5780601f10611ec157610100808354040283529160200191611eea565b820191905f5260205f20905b815481529060010190602001808311611ecd57829003601f168201915b50505050508152602001428152505f5f8381526020019081526020015f205f820151815f015f6101000a81548173ffffffffffffffffffffffffffffffffffffffff021916908373ffffffffffffffffffffffffffffffffffffffff1602179055506020820151816001015560408201518160020155606082015181600301556080820151816004015560a0820151816005015560c0820151816006019081611f9391906142d6565b5060e082015181600701559050508060015f855f015f9054906101000a900473ffffffffffffffffffffffffffffffffffffffff1673ffffffffffffffffffffffffffffffffffffffff1673ffffffffffffffffffffffffffffffffffffffff1681526020019081526020015f208190555060025f8781526020019081526020015f205f5f82015f6101000a81549073ffffffffffffffffffffffffffffffffffffffff0219169055600182015f9055600282015f9055600382015f9055600482015f9055600582015f9055600682015f61206e9190613223565b600782015f6101000a81549073ffffffffffffffffffffffffffffffffffffffff0219169055600882015f90555050825f015f9054906101000a900473ffffffffffffffffffffffffffffffffffffffff1673ffffffffffffffffffffffffffffffffffffffff16848673ffffffffffffffffffffffffffffffffffffffff167f95c552b85d8b617036af79675b72be153f604fd7e75d1c3cde800c82569ce1b7866001015487600401546040516121279291906148e2565b60405180910390a4505050505050565b61213f61325d565b5f5f61214b858561304f565b81526020019081526020015f20604051806101000160405290815f82015f9054906101000a900473ffffffffffffffffffffffffffffffffffffffff1673ffffffffffffffffffffffffffffffffffffffff1673ffffffffffffffffffffffffffffffffffffffff16815260200160018201548152602001600282015481526020016003820154815260200160048201548152602001600582015481526020016006820180546121fa90613c03565b80601f016020809104026020016040519081016040528092919081815260200182805461222690613c03565b80156122715780601f1061224857610100808354040283529160200191612271565b820191905f5260205f20905b81548152906001019060200180831161225457829003601f168201915b50505050508152602001600782015481525050905092915050565b60065481565b5f61229d868661304f565b90505f73ffffffffffffffffffffffffffffffffffffffff165f5f8381526020019081526020015f205f015f9054906101000a900473ffffffffffffffffffffffffffffffffffffffff1673ffffffffffffffffffffffffffffffffffffffff161461233e576040517f08c379a000000000000000000000000000000000000000000000000000000000815260040161233590614555565b60405180910390fd5b5f8673ffffffffffffffffffffffffffffffffffffffff16636352211e876040518263ffffffff1660e01b81526004016123789190613a1f565b602060405180830381865afa158015612393573d5f5f3e3d5ffd5b505050506040513d601f19601f820116820180604052508101906123b79190613bab565b90508073ffffffffffffffffffffffffffffffffffffffff163373ffffffffffffffffffffffffffffffffffffffff1614806123f957506123f8813361317b565b5b612438576040517f08c379a000000000000000000000000000000000000000000000000000000000815260040161242f90614953565b60405180910390fd5b5f5f1b60015f3373ffffffffffffffffffffffffffffffffffffffff1673ffffffffffffffffffffffffffffffffffffffff1681526020019081526020015f2054146124b9576040517f08c379a00000000000000000000000000000000000000000000000000000000081526004016124b090613dc5565b60405180910390fd5b6040518061010001604052803373ffffffffffffffffffffffffffffffffffffffff1681526020018681526020018581526020018481526020015f81526020015f5f1b815260200160405180602001604052805f8152508152602001428152505f5f8481526020019081526020015f205f820151815f015f6101000a81548173ffffffffffffffffffffffffffffffffffffffff021916908373ffffffffffffffffffffffffffffffffffffffff1602179055506020820151816001015560408201518160020155606082015181600301556080820151816004015560a0820151816005015560c08201518160060190816125b491906142d6565b5060e082015181600701559050508160015f3373ffffffffffffffffffffffffffffffffffffffff1673ffffffffffffffffffffffffffffffffffffffff1681526020019081526020015f2081905550600160045f8481526020019081526020015f205f6101000a81548160ff0219169083151502179055503373ffffffffffffffffffffffffffffffffffffffff16868873ffffffffffffffffffffffffffffffffffffffff167f95c552b85d8b617036af79675b72be153f604fd7e75d1c3cde800c82569ce1b7885f60405161268d92919061471b565b60405180910390a450505050505050565b5f60025f8481526020019081526020015f2090505f8160080154116126f8576040517f08c379a00000000000000000000000000000000000000000000000000000000081526004016126ef90613c8d565b60405180910390fd5b806007015f9054906101000a900473ffffffffffffffffffffffffffffffffffffffff1673ffffffffffffffffffffffffffffffffffffffff163373ffffffffffffffffffffffffffffffffffffffff1614612789576040517f08c379a000000000000000000000000000000000000000000000000000000000815260040161278090613cf5565b60405180910390fd5b5f73ffffffffffffffffffffffffffffffffffffffff168273ffffffffffffffffffffffffffffffffffffffff16036127f7576040517f08c379a00000000000000000000000000000000000000000000000000000000081526004016127ee906149bb565b60405180910390fd5b81816007015f6101000a81548173ffffffffffffffffffffffffffffffffffffffff021916908373ffffffffffffffffffffffffffffffffffffffff1602179055508173ffffffffffffffffffffffffffffffffffffffff163373ffffffffffffffffffffffffffffffffffffffff16847f11a23f7e0cd5e88aa52a74e858ef37a5190458f942da8d6b9485ce20d0974ca160405160405180910390a4505050565b5f6128a4868661304f565b90505f73ffffffffffffffffffffffffffffffffffffffff165f5f8381526020019081526020015f205f015f9054906101000a900473ffffffffffffffffffffffffffffffffffffffff1673ffffffffffffffffffffffffffffffffffffffff1603612945576040517f08c379a000000000000000000000000000000000000000000000000000000000815260040161293c90614066565b60405180910390fd5b5f73ffffffffffffffffffffffffffffffffffffffff168473ffffffffffffffffffffffffffffffffffffffff16036129b3576040517f08c379a00000000000000000000000000000000000000000000000000000000081526004016129aa90614a23565b60405180910390fd5b5f5f1b60015f8673ffffffffffffffffffffffffffffffffffffffff1673ffffffffffffffffffffffffffffffffffffffff1681526020019081526020015f205414612a34576040517f08c379a0000000000000000000000000000000000000000000000000000000008152600401612a2b90614a8b565b60405180910390fd5b5f8673ffffffffffffffffffffffffffffffffffffffff16636352211e876040518263ffffffff1660e01b8152600401612a6e9190613a1f565b602060405180830381865afa158015612a89573d5f5f3e3d5ffd5b505050506040513d601f19601f82011682018060405250810190612aad9190613bab565b90505f878787604051602001612ac593929190614af3565b604051602081830303815290604052805190602001209050612b2b8186868080601f0160208091040260200160405190810160405280939291908181526020018383808284375f81840152601f19601f8201169050808301925050505050505084613081565b612b6a576040517f08c379a0000000000000000000000000000000000000000000000000000000008152600401612b61906146c4565b60405180910390fd5b5f5f5f8581526020019081526020015f205f015f9054906101000a900473ffffffffffffffffffffffffffffffffffffffff16905060015f8273ffffffffffffffffffffffffffffffffffffffff1673ffffffffffffffffffffffffffffffffffffffff1681526020019081526020015f205f9055865f5f8681526020019081526020015f205f015f6101000a81548173ffffffffffffffffffffffffffffffffffffffff021916908373ffffffffffffffffffffffffffffffffffffffff1602179055508360015f8973ffffffffffffffffffffffffffffffffffffffff1673ffffffffffffffffffffffffffffffffffffffff1681526020019081526020015f2081905550505050505050505050565b5f5f612c88868661304f565b90505f5f5f8381526020019081526020015f2090505f8773ffffffffffffffffffffffffffffffffffffffff16636352211e886040518263ffffffff1660e01b8152600401612cd79190613a1f565b602060405180830381865afa158015612cf2573d5f5f3e3d5ffd5b505050506040513d601f19601f82011682018060405250810190612d169190613bab565b90508073ffffffffffffffffffffffffffffffffffffffff163373ffffffffffffffffffffffffffffffffffffffff1614612d86576040517f08c379a0000000000000000000000000000000000000000000000000000000008152600401612d7d9061485c565b60405180910390fd5b60045f8481526020019081526020015f205f9054906101000a900460ff16612de3576040517f08c379a0000000000000000000000000000000000000000000000000000000008152600401612dda90614b84565b60405180910390fd5b5f6006541115612e3357600654341015612e32576040517f08c379a0000000000000000000000000000000000000000000000000000000008152600401612e2990614bec565b60405180910390fd5b5b60035f8154612e41906140b1565b91905081905593506040518061012001604052805f73ffffffffffffffffffffffffffffffffffffffff168152602001836001015481526020018781526020018360030154815260200160018460040154612e9c9190614c0a565b815260200184815260200160405180602001604052805f81525081526020018673ffffffffffffffffffffffffffffffffffffffff1681526020014281525060025f8681526020019081526020015f205f820151815f015f6101000a81548173ffffffffffffffffffffffffffffffffffffffff021916908373ffffffffffffffffffffffffffffffffffffffff1602179055506020820151816001015560408201518160020155606082015181600301556080820151816004015560a0820151816005015560c0820151816006019081612f7791906142d6565b5060e0820151816007015f6101000a81548173ffffffffffffffffffffffffffffffffffffffff021916908373ffffffffffffffffffffffffffffffffffffffff16021790555061010082015181600801559050505f73ffffffffffffffffffffffffffffffffffffffff16878973ffffffffffffffffffffffffffffffffffffffff167f4f88e421cd17c3a91fefd97ef7eb8e8e2ea60d788568809fef19ba279f569aff876001876004015461302e9190614c0a565b60405161303c929190613e7c565b60405180910390a4505050949350505050565b5f8282604051602001613063929190614c3d565b60405160208183030381529060405280519060200120905092915050565b5f6041835114613093575f9050613174565b5f5f5f602086015192506040860151915060608601515f1a9050601b8160ff1610156130c957601b816130c69190614c74565b90505b5f876040516020016130db9190614cf2565b6040516020818303038152906040528051906020012090508573ffffffffffffffffffffffffffffffffffffffff166001828487876040515f815260200160405260405161312c9493929190614d26565b6020604051602081039080840390855afa15801561314c573d5f5f3e3d5ffd5b5050506020604051035173ffffffffffffffffffffffffffffffffffffffff16149450505050505b9392505050565b5f8173ffffffffffffffffffffffffffffffffffffffff168373ffffffffffffffffffffffffffffffffffffffff1614905092915050565b6040518061012001604052805f73ffffffffffffffffffffffffffffffffffffffff1681526020015f81526020015f81526020015f81526020015f81526020015f8152602001606081526020015f73ffffffffffffffffffffffffffffffffffffffff1681526020015f81525090565b50805461322f90613c03565b5f825580601f10613240575061325a565b601f0160209004905f5260205f209061325991906132b1565b5b50565b6040518061010001604052805f73ffffffffffffffffffffffffffffffffffffffff1681526020015f81526020015f81526020015f81526020015f81526020015f8152602001606081526020015f81525090565b5f5b808211156132c9578281015f90556001016132b3565b505090565b5f5ffd5b5f5ffd5b5f73ffffffffffffffffffffffffffffffffffffffff82169050919050565b5f6132ff826132d6565b9050919050565b61330f816132f5565b8114613319575f5ffd5b50565b5f8135905061332a81613306565b92915050565b5f819050919050565b61334281613330565b811461334c575f5ffd5b50565b5f8135905061335d81613339565b92915050565b5f5f60408385031215613379576133786132ce565b5b5f6133868582860161331c565b92505060206133978582860161334f565b9150509250929050565b5f8115159050919050565b6133b5816133a1565b82525050565b5f6020820190506133ce5f8301846133ac565b92915050565b5f602082840312156133e9576133e86132ce565b5b5f6133f68482850161331c565b91505092915050565b5f819050919050565b613411816133ff565b82525050565b5f60208201905061342a5f830184613408565b92915050565b613439816132f5565b82525050565b5f6020820190506134525f830184613430565b92915050565b5f6020828403121561346d5761346c6132ce565b5b5f61347a8482850161334f565b91505092915050565b61348c816132f5565b82525050565b61349b816133ff565b82525050565b6134aa81613330565b82525050565b5f81519050919050565b5f82825260208201905092915050565b8281835e5f83830152505050565b5f601f19601f8301169050919050565b5f6134f2826134b0565b6134fc81856134ba565b935061350c8185602086016134ca565b613515816134d8565b840191505092915050565b5f61012083015f8301516135365f860182613483565b5060208301516135496020860182613492565b50604083015161355c6040860182613492565b50606083015161356f6060860182613492565b50608083015161358260808601826134a1565b5060a083015161359560a0860182613492565b5060c083015184820360c08601526135ad82826134e8565b91505060e08301516135c260e0860182613483565b506101008301516135d76101008601826134a1565b508091505092915050565b5f6020820190508181035f8301526135fa8184613520565b905092915050565b5f5f60408385031215613618576136176132ce565b5b5f6136258582860161334f565b92505060206136368582860161331c565b9150509250929050565b613649816133a1565b8114613653575f5ffd5b50565b5f8135905061366481613640565b92915050565b5f5f5f60608486031215613681576136806132ce565b5b5f61368e8682870161331c565b935050602061369f8682870161334f565b92505060406136b086828701613656565b9150509250925092565b6136c3816133ff565b81146136cd575f5ffd5b50565b5f813590506136de816136ba565b92915050565b5f5ffd5b5f5ffd5b5f5ffd5b5f5f83601f840112613705576137046136e4565b5b8235905067ffffffffffffffff811115613722576137216136e8565b5b60208301915083600182028301111561373e5761373d6136ec565b5b9250929050565b5f5f5f5f5f6080868803121561375e5761375d6132ce565b5b5f61376b8882890161331c565b955050602061377c8882890161334f565b945050604061378d888289016136d0565b935050606086013567ffffffffffffffff8111156137ae576137ad6132d2565b5b6137ba888289016136f0565b92509250509295509295909350565b5f5f83601f8401126137de576137dd6136e4565b5b8235905067ffffffffffffffff8111156137fb576137fa6136e8565b5b602083019150836001820283011115613817576138166136ec565b5b9250929050565b5f5f5f5f5f5f5f60c0888a031215613839576138386132ce565b5b5f6138468a828b0161331c565b97505060206138578a828b0161334f565b96505060406138688a828b016136d0565b95505060606138798a828b016136d0565b945050608061388a8a828b016136d0565b93505060a088013567ffffffffffffffff8111156138ab576138aa6132d2565b5b6138b78a828b016137c9565b925092505092959891949750929550565b5f602082840312156138dd576138dc6132ce565b5b5f6138ea84828501613656565b91505092915050565b5f5f5f6060848603121561390a576139096132ce565b5b5f6139178682870161334f565b93505060206139288682870161331c565b92505060406139398682870161334f565b9150509250925092565b5f61010083015f8301516139595f860182613483565b50602083015161396c6020860182613492565b50604083015161397f6040860182613492565b5060608301516139926060860182613492565b5060808301516139a560808601826134a1565b5060a08301516139b860a0860182613492565b5060c083015184820360c08601526139d082826134e8565b91505060e08301516139e560e08601826134a1565b508091505092915050565b5f6020820190508181035f830152613a088184613943565b905092915050565b613a1981613330565b82525050565b5f602082019050613a325f830184613a10565b92915050565b5f5f5f5f5f60a08688031215613a5157613a506132ce565b5b5f613a5e8882890161331c565b9550506020613a6f8882890161334f565b9450506040613a80888289016136d0565b9350506060613a91888289016136d0565b9250506080613aa2888289016136d0565b9150509295509295909350565b5f5f5f5f5f60808688031215613ac857613ac76132ce565b5b5f613ad58882890161331c565b9550506020613ae68882890161334f565b9450506040613af78882890161331c565b935050606086013567ffffffffffffffff811115613b1857613b176132d2565b5b613b24888289016137c9565b92509250509295509295909350565b5f5f5f5f60808587031215613b4b57613b4a6132ce565b5b5f613b588782880161331c565b9450506020613b698782880161334f565b9350506040613b7a878288016136d0565b9250506060613b8b8782880161331c565b91505092959194509250565b5f81519050613ba581613306565b92915050565b5f60208284031215613bc057613bbf6132ce565b5b5f613bcd84828501613b97565b91505092915050565b7f4e487b71000000000000000000000000000000000000000000000000000000005f52602260045260245ffd5b5f6002820490506001821680613c1a57607f821691505b602082108103613c2d57613c2c613bd6565b5b50919050565b5f82825260208201905092915050565b7f436c6f6e6520646f65736e2774206578697374000000000000000000000000005f82015250565b5f613c77601383613c33565b9150613c8282613c43565b602082019050919050565b5f6020820190508181035f830152613ca481613c6b565b9050919050565b7f4e6f7420636c6f6e65206f776e657200000000000000000000000000000000005f82015250565b5f613cdf600f83613c33565b9150613cea82613cab565b602082019050919050565b5f6020820190508181035f830152613d0c81613cd3565b9050919050565b7f416c726561647920636c61696d656400000000000000000000000000000000005f82015250565b5f613d47600f83613c33565b9150613d5282613d13565b602082019050919050565b5f6020820190508181035f830152613d7481613d3b565b9050919050565b7f454f4120616c72656164792072656769737465726564000000000000000000005f82015250565b5f613daf601683613c33565b9150613dba82613d7b565b602082019050919050565b5f6020820190508181035f830152613ddc81613da3565b9050919050565b5f81905092915050565b7f434c4f4e450000000000000000000000000000000000000000000000000000005f82015250565b5f613e21600583613de3565b9150613e2c82613ded565b600582019050919050565b5f819050919050565b613e51613e4c82613330565b613e37565b82525050565b5f613e6182613e15565b9150613e6d8284613e40565b60208201915081905092915050565b5f604082019050613e8f5f830185613a10565b613e9c6020830184613a10565b9392505050565b7f4e6f7420706c6174666f726d00000000000000000000000000000000000000005f82015250565b5f613ed7600c83613c33565b9150613ee282613ea3565b602082019050919050565b5f6020820190508181035f830152613f0481613ecb565b9050919050565b5f81905092915050565b50565b5f613f235f83613f0b565b9150613f2e82613f15565b5f82019050919050565b5f613f4282613f18565b9150819050919050565b7f5472616e73666572206661696c656400000000000000000000000000000000005f82015250565b5f613f80600f83613c33565b9150613f8b82613f4c565b602082019050919050565b5f6020820190508181035f830152613fad81613f74565b9050919050565b7f4e6f74206f776e657200000000000000000000000000000000000000000000005f82015250565b5f613fe8600983613c33565b9150613ff382613fb4565b602082019050919050565b5f6020820190508181035f83015261401581613fdc565b9050919050565b7f4e6f7420626f756e6400000000000000000000000000000000000000000000005f82015250565b5f614050600983613c33565b915061405b8261401c565b602082019050919050565b5f6020820190508181035f83015261407d81614044565b9050919050565b7f4e487b71000000000000000000000000000000000000000000000000000000005f52601160045260245ffd5b5f6140bb82613330565b91507fffffffffffffffffffffffffffffffffffffffffffffffffffffffffffffffff82036140ed576140ec614084565b5b600182019050919050565b7f4e487b71000000000000000000000000000000000000000000000000000000005f52604160045260245ffd5b5f819050815f5260205f209050919050565b5f6020601f8301049050919050565b5f82821b905092915050565b5f600883026141817fffffffffffffffffffffffffffffffffffffffffffffffffffffffffffffffff82614146565b61418b8683614146565b95508019841693508086168417925050509392505050565b5f819050919050565b5f6141c66141c16141bc84613330565b6141a3565b613330565b9050919050565b5f819050919050565b6141df836141ac565b6141f36141eb826141cd565b848454614152565b825550505050565b5f5f905090565b61420a6141fb565b6142158184846141d6565b505050565b5f5b8281101561423b576142305f828401614202565b60018101905061421c565b505050565b601f82111561428e578282111561428d5761425a81614125565b61426383614137565b61426c85614137565b6020861015614279575f90505b8083016142888284038261421a565b505050505b5b505050565b5f82821c905092915050565b5f6142ae5f1984600802614293565b1980831691505092915050565b5f6142c6838361429f565b9150826002028217905092915050565b6142df826134b0565b67ffffffffffffffff8111156142f8576142f76140f8565b5b6143028254613c03565b61430d828285614240565b5f60209050601f83116001811461433e575f841561432c578287015190505b61433685826142bb565b86555061439d565b601f19841661434c86614125565b5f5b828110156143735784890151825560018201915060208501945060208101905061434e565b86831015614390578489015161438c601f89168261429f565b8355505b6001600288020188555050505b505050505050565b5f6040820190506143b85f830185613a10565b6143c56020830184613430565b9392505050565b7f4e6f7420746865206167656e74000000000000000000000000000000000000005f82015250565b5f614400600d83613c33565b915061440b826143cc565b602082019050919050565b5f6020820190508181035f83015261442d816143f4565b9050919050565b5f82905092915050565b6144488383614434565b67ffffffffffffffff811115614461576144606140f8565b5b61446b8254613c03565b614476828285614240565b5f601f8311600181146144a3575f8415614491578287013590505b61449b85826142bb565b865550614502565b601f1984166144b186614125565b5f5b828110156144d8578489013582556001820191506020850194506020810190506144b3565b868310156144f557848901356144f1601f89168261429f565b8355505b6001600288020188555050505b50505050505050565b7f416c7265616479207265676973746572656400000000000000000000000000005f82015250565b5f61453f601283613c33565b915061454a8261450b565b602082019050919050565b5f6020820190508181035f83015261456c81614533565b9050919050565b7f41494e46545f52454749535445520000000000000000000000000000000000005f82015250565b5f6145a7600e83613de3565b91506145b282614573565b600e82019050919050565b5f8160601b9050919050565b5f6145d3826145bd565b9050919050565b5f6145e4826145c9565b9050919050565b6145fc6145f7826132f5565b6145da565b82525050565b5f819050919050565b61461c614617826133ff565b614602565b82525050565b5f61462c8261459b565b915061463882876145eb565b6014820191506146488286613e40565b60208201915061465882856145eb565b601482019150614668828461460b565b60208201915081905095945050505050565b7f496e76616c6964206f776e6572207369676e61747572650000000000000000005f82015250565b5f6146ae601783613c33565b91506146b98261467a565b602082019050919050565b5f6020820190508181035f8301526146db816146a2565b9050919050565b5f819050919050565b5f6147056147006146fb846146e2565b6141a3565b613330565b9050919050565b614715816146eb565b82525050565b5f60408201905061472e5f830185613408565b61473b602083018461470c565b9392505050565b7f4c696d626f20656e74727920646f65736e2774206578697374000000000000005f82015250565b5f614776601983613c33565b915061478182614742565b602082019050919050565b5f6020820190508181035f8301526147a38161476a565b9050919050565b7f4e6f74206c696d626f206f776e657200000000000000000000000000000000005f82015250565b5f6147de600f83613c33565b91506147e9826147aa565b602082019050919050565b5f6020820190508181035f83015261480b816147d2565b9050919050565b7f4e6f74204e4654206f776e6572000000000000000000000000000000000000005f82015250565b5f614846600d83613c33565b915061485182614812565b602082019050919050565b5f6020820190508181035f8301526148738161483a565b9050919050565b7f4e465420616c726561647920686173206167656e7400000000000000000000005f82015250565b5f6148ae601583613c33565b91506148b98261487a565b602082019050919050565b5f6020820190508181035f8301526148db816148a2565b9050919050565b5f6040820190506148f55f830185613408565b6149026020830184613a10565b9392505050565b7f4e6f74206f776e6572206f7220617574686f72697a6564206167656e740000005f82015250565b5f61493d601d83613c33565b915061494882614909565b602082019050919050565b5f6020820190508181035f83015261496a81614931565b9050919050565b7f496e76616c6964206e6577206f776e65720000000000000000000000000000005f82015250565b5f6149a5601183613c33565b91506149b082614971565b602082019050919050565b5f6020820190508181035f8301526149d281614999565b9050919050565b7f5a65726f206164647265737300000000000000000000000000000000000000005f82015250565b5f614a0d600c83613c33565b9150614a18826149d9565b602082019050919050565b5f6020820190508181035f830152614a3a81614a01565b9050919050565b7f454f4120616c726561647920626f756e640000000000000000000000000000005f82015250565b5f614a75601183613c33565b9150614a8082614a41565b602082019050919050565b5f6020820190508181035f830152614aa281614a69565b9050919050565b7f41494e46545f524542494e4400000000000000000000000000000000000000005f82015250565b5f614add600c83613de3565b9150614ae882614aa9565b600c82019050919050565b5f614afd82614ad1565b9150614b0982866145eb565b601482019150614b198285613e40565b602082019150614b2982846145eb565b601482019150819050949350505050565b7f436c6f6e696e672064697361626c6564000000000000000000000000000000005f82015250565b5f614b6e601083613c33565b9150614b7982614b3a565b602082019050919050565b5f6020820190508181035f830152614b9b81614b62565b9050919050565b7f496e73756666696369656e7420666565000000000000000000000000000000005f82015250565b5f614bd6601083613c33565b9150614be182614ba2565b602082019050919050565b5f6020820190508181035f830152614c0381614bca565b9050919050565b5f614c1482613330565b9150614c1f83613330565b9250828201905080821115614c3757614c36614084565b5b92915050565b5f614c4882856145eb565b601482019150614c588284613e40565b6020820191508190509392505050565b5f60ff82169050919050565b5f614c7e82614c68565b9150614c8983614c68565b9250828201905060ff811115614ca257614ca1614084565b5b92915050565b7f19457468657265756d205369676e6564204d6573736167653a0a3332000000005f82015250565b5f614cdc601c83613de3565b9150614ce782614ca8565b601c82019050919050565b5f614cfc82614cd0565b9150614d08828461460b565b60208201915081905092915050565b614d2081614c68565b82525050565b5f608082019050614d395f830187613408565b614d466020830186614d17565b614d536040830185613408565b614d606060830184613408565b9594505050505056fea26469706673582212206b45fec2d6afaa0505d934fbbb4cd585a4de9ae503faed0898a2ba80fd8e737364736f6c63430008210033","linkReferences":{}},"methodIdentifiers":{"bindExisting(uint256,address,uint256)":"d1bfbf03","bindNew(address,uint256,bytes32,bytes32,bytes32)":"df8e0b4e","bindWithApproval(address,uint256,bytes32,bytes32,bytes32,bytes)":"80cf1a80","canClone(address,uint256)":"0233ccad","claimClone(uint256,address)":"32cc77f5","clone(address,uint256,bytes32,address)":"ff8cf0ed","cloningFee()":"d4404219","eoaToKey(address)":"52d6a74b","getAgent(address,uint256)":"d3fc38d5","getAgentByEOA(address)":"047ad568","getClone(uint256)":"2aedfdb2","isRegistered(address,uint256)":"a8f1602c","openRegistration()":"d06e4ee7","ownerOf(address,uint256)":"1f29d2dc","platformSigner()":"ba92ddbc","rebind(address,uint256,address,bytes)":"ff7a5ce8","setCloning(address,uint256,bool)":"5f5fda1a","setCloningFee(uint256)":"c147e09f","setOpenRegistration(bool)":"a6f7f267","transferCloneClaim(uint256,address)":"fb588ac3","unbind(address,uint256)":"7960d9bb","updateMemory(address,uint256,bytes32,string)":"79fc4e0c","withdrawFees()":"476343ee"},"id":0}