{"abi":[{"type":"constructor","inputs":[],"stateMutability":"nonpayable"},{"type":"function","name":"getNominationCount","inputs":[{"name":"agent","type":"address","internalType":"address"}],"outputs":[{"name":"","type":"uint256","internalType":"uint256"}],"stateMutability":"view"},{"type":"function","name":"getScore","inputs":[{"name":"agent","type":"address","internalType":"address"}],"outputs":[{"name":"cs","type":"uint256","internalType":"uint256"},{"name":"si","type":"uint256","internalType":"uint256"},{"name":"tier","type":"uint8","internalType":"uint8"},{"name":"lastTest","type":"uint256","internalType":"uint256"},{"name":"fails","type":"uint256","internalType":"uint256"},{"name":"passes","type":"uint256","internalType":"uint256"}],"stateMutability":"view"},{"type":"function","name":"getTotalAgents","inputs":[],"outputs":[{"name":"","type":"uint256","internalType":"uint256"}],"stateMutability":"view"},{"type":"function","name":"nominate","inputs":[{"name":"nominee","type":"address","internalType":"address"}],"outputs":[],"stateMutability":"nonpayable"},{"type":"function","name":"nominations","inputs":[{"name":"","type":"address","internalType":"address"},{"name":"","type":"uint256","internalType":"uint256"}],"outputs":[{"name":"","type":"address","internalType":"address"}],"stateMutability":"view"},{"type":"function","name":"owner","inputs":[],"outputs":[{"name":"","type":"address","internalType":"address"}],"stateMutability":"view"},{"type":"function","name":"qualifiesForAscendant","inputs":[{"name":"agent","type":"address","internalType":"address"}],"outputs":[{"name":"","type":"bool","internalType":"bool"}],"stateMutability":"view"},{"type":"function","name":"recordFail","inputs":[{"name":"agent","type":"address","internalType":"address"},{"name":"tier","type":"uint8","internalType":"uint8"},{"name":"reason","type":"string","internalType":"string"}],"outputs":[],"stateMutability":"nonpayable"},{"type":"function","name":"recordPass","inputs":[{"name":"agent","type":"address","internalType":"address"},{"name":"tier","type":"uint8","internalType":"uint8"},{"name":"score","type":"uint256","internalType":"uint256"}],"outputs":[],"stateMutability":"nonpayable"},{"type":"function","name":"registerAgent","inputs":[],"outputs":[],"stateMutability":"nonpayable"},{"type":"function","name":"registeredAgents","inputs":[{"name":"","type":"uint256","internalType":"uint256"}],"outputs":[{"name":"","type":"address","internalType":"address"}],"stateMutability":"view"},{"type":"function","name":"renounceOwnership","inputs":[],"outputs":[],"stateMutability":"nonpayable"},{"type":"function","name":"scores","inputs":[{"name":"","type":"address","internalType":"address"}],"outputs":[{"name":"capabilityScore","type":"uint256","internalType":"uint256"},{"name":"sovereigntyIndex","type":"uint256","internalType":"uint256"},{"name":"tier","type":"uint8","internalType":"uint8"},{"name":"lastTestBlock","type":"uint256","internalType":"uint256"},{"name":"failCount","type":"uint256","internalType":"uint256"},{"name":"passCount","type":"uint256","internalType":"uint256"},{"name":"isRegistered","type":"bool","internalType":"bool"}],"stateMutability":"view"},{"type":"function","name":"transferOwnership","inputs":[{"name":"newOwner","type":"address","internalType":"address"}],"outputs":[],"stateMutability":"nonpayable"},{"type":"function","name":"updateScore","inputs":[{"name":"agent","type":"address","internalType":"address"},{"name":"cs","type":"uint256","internalType":"uint256"},{"name":"si","type":"uint256","internalType":"uint256"},{"name":"tier","type":"uint8","internalType":"uint8"}],"outputs":[],"stateMutability":"nonpayable"},{"type":"event","name":"AgentRegistered","inputs":[{"name":"agent","type":"address","indexed":true,"internalType":"address"},{"name":"timestamp","type":"uint256","indexed":false,"internalType":"uint256"}],"anonymous":false},{"type":"event","name":"Nominated","inputs":[{"name":"nominee","type":"address","indexed":true,"internalType":"address"},{"name":"nominator","type":"address","indexed":true,"internalType":"address"}],"anonymous":false},{"type":"event","name":"OwnershipTransferred","inputs":[{"name":"previousOwner","type":"address","indexed":true,"internalType":"address"},{"name":"newOwner","type":"address","indexed":true,"internalType":"address"}],"anonymous":false},{"type":"event","name":"ScoreUpdated","inputs":[{"name":"agent","type":"address","indexed":true,"internalType":"address"},{"name":"cs","type":"uint256","indexed":false,"internalType":"uint256"},{"name":"si","type":"uint256","indexed":false,"internalType":"uint256"},{"name":"tier","type":"uint8","indexed":false,"internalType":"uint8"}],"anonymous":false},{"type":"event","name":"TestFailed","inputs":[{"name":"agent","type":"address","indexed":true,"internalType":"address"},{"name":"tier","type":"uint8","indexed":false,"internalType":"uint8"},{"name":"reason","type":"string","indexed":false,"internalType":"string"}],"anonymous":false},{"type":"event","name":"TestPassed","inputs":[{"name":"agent","type":"address","indexed":true,"internalType":"address"},{"name":"tier","type":"uint8","indexed":false,"internalType":"uint8"},{"name":"score","type":"uint256","indexed":false,"internalType":"uint256"}],"anonymous":false},{"type":"error","name":"OwnableInvalidOwner","inputs":[{"name":"owner","type":"address","internalType":"address"}]},{"type":"error","name":"OwnableUnauthorizedAccount","inputs":[{"name":"account","type":"address","internalType":"address"}]}],"bytecode":{"object":"0x608060405234801561000f575f5ffd5b50335f73ffffffffffffffffffffffffffffffffffffffff168173ffffffffffffffffffffffffffffffffffffffff1603610081575f6040517f1e4fbdf70000000000000000000000000000000000000000000000000000000081526004016100789190610196565b60405180910390fd5b6100908161009660201b60201c565b506101af565b5f5f5f9054906101000a900473ffffffffffffffffffffffffffffffffffffffff169050815f5f6101000a81548173ffffffffffffffffffffffffffffffffffffffff021916908373ffffffffffffffffffffffffffffffffffffffff1602179055508173ffffffffffffffffffffffffffffffffffffffff168173ffffffffffffffffffffffffffffffffffffffff167f8be0079c531659141344cd1fd0a4f28419497f9722a3daafe3b4186f6b6457e060405160405180910390a35050565b5f73ffffffffffffffffffffffffffffffffffffffff82169050919050565b5f61018082610157565b9050919050565b61019081610176565b82525050565b5f6020820190506101a95f830184610187565b92915050565b611d21806101bc5f395ff3fe608060405234801561000f575f5ffd5b50600436106100f3575f3560e01c8063a7bd211c11610095578063dcc1911211610064578063dcc1911214610266578063f1850cd814610296578063f2fde38b146102c6578063f4000435146102e2576100f3565b8063a7bd211c146101b5578063b332180b146101e5578063ba313ef914610201578063d47875d014610231576100f3565b8063715018a6116100d1578063715018a61461013b57806376dd110f146101455780638da5cb5b1461017b5780639117856114610199576100f3565b806335eb5208146100f75780633731a16f146101015780636efcc4ec1461011f575b5f5ffd5b6100ff6102fe565b005b610109610523565b6040516101169190611391565b60405180910390f35b6101396004803603810190610134919061146c565b61052f565b005b61014361066d565b005b61015f600480360381019061015a91906114bc565b610680565b6040516101729796959493929190611510565b60405180910390f35b6101836106d6565b604051610190919061158c565b60405180910390f35b6101b360048036038101906101ae91906115a5565b6106fd565b005b6101cf60048036038101906101ca9190611609565b6109e0565b6040516101dc919061158c565b60405180910390f35b6101ff60048036038101906101fa91906114bc565b610a1b565b005b61021b60048036038101906102169190611634565b610dc6565b604051610228919061158c565b60405180910390f35b61024b600480360381019061024691906114bc565b610e0e565b60405161025d96959493929190611672565b60405180910390f35b610280600480360381019061027b91906114bc565b610ef9565b60405161028d9190611391565b60405180910390f35b6102b060048036038101906102ab91906114bc565b610f42565b6040516102bd91906116d1565b60405180910390f35b6102e060048036038101906102db91906114bc565b611065565b005b6102fc60048036038101906102f7919061174b565b6110e9565b005b60015f3373ffffffffffffffffffffffffffffffffffffffff1673ffffffffffffffffffffffffffffffffffffffff1681526020019081526020015f206006015f9054906101000a900460ff161561038b576040517f08c379a000000000000000000000000000000000000000000000000000000000815260040161038290611816565b60405180910390fd5b6040518060e001604052805f81526020015f81526020015f60ff1681526020014381526020015f81526020015f81526020016001151581525060015f3373ffffffffffffffffffffffffffffffffffffffff1673ffffffffffffffffffffffffffffffffffffffff1681526020019081526020015f205f820151815f0155602082015181600101556040820151816002015f6101000a81548160ff021916908360ff160217905550606082015181600301556080820151816004015560a0820151816005015560c0820151816006015f6101000a81548160ff021916908315150217905550905050600333908060018154018082558091505060019003905f5260205f20015f9091909190916101000a81548173ffffffffffffffffffffffffffffffffffffffff021916908373ffffffffffffffffffffffffffffffffffffffff1602179055503373ffffffffffffffffffffffffffffffffffffffff167fd1b844701695237443dd884ed7193d9c8788f3befd35adc0910472eb166f3306426040516105199190611391565b60405180910390a2565b5f600380549050905090565b61053761122a565b60015f8473ffffffffffffffffffffffffffffffffffffffff1673ffffffffffffffffffffffffffffffffffffffff1681526020019081526020015f206006015f9054906101000a900460ff166105c3576040517f08c379a00000000000000000000000000000000000000000000000000000000081526004016105ba9061187e565b60405180910390fd5b60015f8473ffffffffffffffffffffffffffffffffffffffff1673ffffffffffffffffffffffffffffffffffffffff1681526020019081526020015f206005015f815480929190610613906118c9565b91905055508273ffffffffffffffffffffffffffffffffffffffff167fbb07bef02a9652e58e89ad44cd73685532dfaf5357577b726ec76a80990ae6028383604051610660929190611910565b60405180910390a2505050565b61067561122a565b61067e5f6112b1565b565b6001602052805f5260405f205f91509050805f015490806001015490806002015f9054906101000a900460ff1690806003015490806004015490806005015490806006015f9054906101000a900460ff16905087565b5f5f5f9054906101000a900473ffffffffffffffffffffffffffffffffffffffff16905090565b61070561122a565b60015f8573ffffffffffffffffffffffffffffffffffffffff1673ffffffffffffffffffffffffffffffffffffffff1681526020019081526020015f206006015f9054906101000a900460ff16610791576040517f08c379a00000000000000000000000000000000000000000000000000000000081526004016107889061187e565b60405180910390fd5b6105dc8311156107d6576040517f08c379a00000000000000000000000000000000000000000000000000000000081526004016107cd90611981565b60405180910390fd5b6103e882111561081b576040517f08c379a0000000000000000000000000000000000000000000000000000000008152600401610812906119e9565b60405180910390fd5b60078160ff161115610862576040517f08c379a000000000000000000000000000000000000000000000000000000000815260040161085990611a51565b60405180910390fd5b8260015f8673ffffffffffffffffffffffffffffffffffffffff1673ffffffffffffffffffffffffffffffffffffffff1681526020019081526020015f205f01819055508160015f8673ffffffffffffffffffffffffffffffffffffffff1673ffffffffffffffffffffffffffffffffffffffff1681526020019081526020015f20600101819055508060015f8673ffffffffffffffffffffffffffffffffffffffff1673ffffffffffffffffffffffffffffffffffffffff1681526020019081526020015f206002015f6101000a81548160ff021916908360ff1602179055504360015f8673ffffffffffffffffffffffffffffffffffffffff1673ffffffffffffffffffffffffffffffffffffffff1681526020019081526020015f20600301819055508373ffffffffffffffffffffffffffffffffffffffff167fbce073b800fc289db5c7c2a9fa559c283ac3a81414913941269627555c67354b8484846040516109d293929190611a6f565b60405180910390a250505050565b600381815481106109ef575f80fd5b905f5260205f20015f915054906101000a900473ffffffffffffffffffffffffffffffffffffffff1681565b600660015f3373ffffffffffffffffffffffffffffffffffffffff1673ffffffffffffffffffffffffffffffffffffffff1681526020019081526020015f206002015f9054906101000a900460ff1660ff161015610aae576040517f08c379a0000000000000000000000000000000000000000000000000000000008152600401610aa590611aee565b60405180910390fd5b600560015f8373ffffffffffffffffffffffffffffffffffffffff1673ffffffffffffffffffffffffffffffffffffffff1681526020019081526020015f206002015f9054906101000a900460ff1660ff161015610b41576040517f08c379a0000000000000000000000000000000000000000000000000000000008152600401610b3890611b56565b60405180910390fd5b61025860015f8373ffffffffffffffffffffffffffffffffffffffff1673ffffffffffffffffffffffffffffffffffffffff1681526020019081526020015f20600101541015610bc6576040517f08c379a0000000000000000000000000000000000000000000000000000000008152600401610bbd90611bbe565b60405180910390fd5b5f60025f8373ffffffffffffffffffffffffffffffffffffffff1673ffffffffffffffffffffffffffffffffffffffff1681526020019081526020015f2090505f5f90505b8180549050811015610ccc573373ffffffffffffffffffffffffffffffffffffffff16828281548110610c4157610c40611bdc565b5b905f5260205f20015f9054906101000a900473ffffffffffffffffffffffffffffffffffffffff1673ffffffffffffffffffffffffffffffffffffffff1603610cbf576040517f08c379a0000000000000000000000000000000000000000000000000000000008152600401610cb690611c53565b60405180910390fd5b8080600101915050610c0b565b5060025f8373ffffffffffffffffffffffffffffffffffffffff1673ffffffffffffffffffffffffffffffffffffffff1681526020019081526020015f2033908060018154018082558091505060019003905f5260205f20015f9091909190916101000a81548173ffffffffffffffffffffffffffffffffffffffff021916908373ffffffffffffffffffffffffffffffffffffffff1602179055503373ffffffffffffffffffffffffffffffffffffffff168273ffffffffffffffffffffffffffffffffffffffff167f3ce7d0c04d2ef9adf7825b41aa982b376bd65267c91603077653811dcce94b7460405160405180910390a35050565b6002602052815f5260405f208181548110610ddf575f80fd5b905f5260205f20015f915091509054906101000a900473ffffffffffffffffffffffffffffffffffffffff1681565b5f5f5f5f5f5f5f60015f8973ffffffffffffffffffffffffffffffffffffffff1673ffffffffffffffffffffffffffffffffffffffff1681526020019081526020015f206040518060e00160405290815f820154815260200160018201548152602001600282015f9054906101000a900460ff1660ff1660ff168152602001600382015481526020016004820154815260200160058201548152602001600682015f9054906101000a900460ff1615151515815250509050805f015181602001518260400151836060015184608001518560a001519650965096509650965096505091939550919395565b5f60025f8373ffffffffffffffffffffffffffffffffffffffff1673ffffffffffffffffffffffffffffffffffffffff1681526020019081526020015f20805490509050919050565b5f5f60015f8473ffffffffffffffffffffffffffffffffffffffff1673ffffffffffffffffffffffffffffffffffffffff1681526020019081526020015f206040518060e00160405290815f820154815260200160018201548152602001600282015f9054906101000a900460ff1660ff1660ff168152602001600382015481526020016004820154815260200160058201548152602001600682015f9054906101000a900460ff16151515158152505090506104b0815f0151101580156110105750610258816020015110155b801561105d5750600360025f8573ffffffffffffffffffffffffffffffffffffffff1673ffffffffffffffffffffffffffffffffffffffff1681526020019081526020015f208054905010155b915050919050565b61106d61122a565b5f73ffffffffffffffffffffffffffffffffffffffff168173ffffffffffffffffffffffffffffffffffffffff16036110dd575f6040517f1e4fbdf70000000000000000000000000000000000000000000000000000000081526004016110d4919061158c565b60405180910390fd5b6110e6816112b1565b50565b6110f161122a565b60015f8573ffffffffffffffffffffffffffffffffffffffff1673ffffffffffffffffffffffffffffffffffffffff1681526020019081526020015f206006015f9054906101000a900460ff1661117d576040517f08c379a00000000000000000000000000000000000000000000000000000000081526004016111749061187e565b60405180910390fd5b60015f8573ffffffffffffffffffffffffffffffffffffffff1673ffffffffffffffffffffffffffffffffffffffff1681526020019081526020015f206004015f8154809291906111cd906118c9565b91905055508373ffffffffffffffffffffffffffffffffffffffff167fc5217aa6e2af358c46375a7d966a24428277eb8e131c0e115d37644124268b5484848460405161121c93929190611cbb565b60405180910390a250505050565b611232611372565b73ffffffffffffffffffffffffffffffffffffffff166112506106d6565b73ffffffffffffffffffffffffffffffffffffffff16146112af57611273611372565b6040517f118cdaa70000000000000000000000000000000000000000000000000000000081526004016112a6919061158c565b60405180910390fd5b565b5f5f5f9054906101000a900473ffffffffffffffffffffffffffffffffffffffff169050815f5f6101000a81548173ffffffffffffffffffffffffffffffffffffffff021916908373ffffffffffffffffffffffffffffffffffffffff1602179055508173ffffffffffffffffffffffffffffffffffffffff168173ffffffffffffffffffffffffffffffffffffffff167f8be0079c531659141344cd1fd0a4f28419497f9722a3daafe3b4186f6b6457e060405160405180910390a35050565b5f33905090565b5f819050919050565b61138b81611379565b82525050565b5f6020820190506113a45f830184611382565b92915050565b5f5ffd5b5f5ffd5b5f73ffffffffffffffffffffffffffffffffffffffff82169050919050565b5f6113db826113b2565b9050919050565b6113eb816113d1565b81146113f5575f5ffd5b50565b5f81359050611406816113e2565b92915050565b5f60ff82169050919050565b6114218161140c565b811461142b575f5ffd5b50565b5f8135905061143c81611418565b92915050565b61144b81611379565b8114611455575f5ffd5b50565b5f8135905061146681611442565b92915050565b5f5f5f60608486031215611483576114826113aa565b5b5f611490868287016113f8565b93505060206114a18682870161142e565b92505060406114b286828701611458565b9150509250925092565b5f602082840312156114d1576114d06113aa565b5b5f6114de848285016113f8565b91505092915050565b6114f08161140c565b82525050565b5f8115159050919050565b61150a816114f6565b82525050565b5f60e0820190506115235f83018a611382565b6115306020830189611382565b61153d60408301886114e7565b61154a6060830187611382565b6115576080830186611382565b61156460a0830185611382565b61157160c0830184611501565b98975050505050505050565b611586816113d1565b82525050565b5f60208201905061159f5f83018461157d565b92915050565b5f5f5f5f608085870312156115bd576115bc6113aa565b5b5f6115ca878288016113f8565b94505060206115db87828801611458565b93505060406115ec87828801611458565b92505060606115fd8782880161142e565b91505092959194509250565b5f6020828403121561161e5761161d6113aa565b5b5f61162b84828501611458565b91505092915050565b5f5f6040838503121561164a576116496113aa565b5b5f611657858286016113f8565b925050602061166885828601611458565b9150509250929050565b5f60c0820190506116855f830189611382565b6116926020830188611382565b61169f60408301876114e7565b6116ac6060830186611382565b6116b96080830185611382565b6116c660a0830184611382565b979650505050505050565b5f6020820190506116e45f830184611501565b92915050565b5f5ffd5b5f5ffd5b5f5ffd5b5f5f83601f84011261170b5761170a6116ea565b5b8235905067ffffffffffffffff811115611728576117276116ee565b5b602083019150836001820283011115611744576117436116f2565b5b9250929050565b5f5f5f5f60608587031215611763576117626113aa565b5b5f611770878288016113f8565b94505060206117818782880161142e565b935050604085013567ffffffffffffffff8111156117a2576117a16113ae565b5b6117ae878288016116f6565b925092505092959194509250565b5f82825260208201905092915050565b7f416c7265616479207265676973746572656400000000000000000000000000005f82015250565b5f6118006012836117bc565b915061180b826117cc565b602082019050919050565b5f6020820190508181035f83015261182d816117f4565b9050919050565b7f4167656e74206e6f7420726567697374657265640000000000000000000000005f82015250565b5f6118686014836117bc565b915061187382611834565b602082019050919050565b5f6020820190508181035f8301526118958161185c565b9050919050565b7f4e487b71000000000000000000000000000000000000000000000000000000005f52601160045260245ffd5b5f6118d382611379565b91507fffffffffffffffffffffffffffffffffffffffffffffffffffffffffffffffff82036119055761190461189c565b5b600182019050919050565b5f6040820190506119235f8301856114e7565b6119306020830184611382565b9392505050565b7f43532065786365656473206d61780000000000000000000000000000000000005f82015250565b5f61196b600e836117bc565b915061197682611937565b602082019050919050565b5f6020820190508181035f8301526119988161195f565b9050919050565b7f53492065786365656473206d61780000000000000000000000000000000000005f82015250565b5f6119d3600e836117bc565b91506119de8261199f565b602082019050919050565b5f6020820190508181035f830152611a00816119c7565b9050919050565b7f496e76616c6964207469657200000000000000000000000000000000000000005f82015250565b5f611a3b600c836117bc565b9150611a4682611a07565b602082019050919050565b5f6020820190508181035f830152611a6881611a2f565b9050919050565b5f606082019050611a825f830186611382565b611a8f6020830185611382565b611a9c60408301846114e7565b949350505050565b7f4d75737420626520536f7665726569676e20746f206e6f6d696e6174650000005f82015250565b5f611ad8601d836117bc565b9150611ae382611aa4565b602082019050919050565b5f6020820190508181035f830152611b0581611acc565b9050919050565b7f4e6f6d696e6565206d757374206265204172636869746563742b0000000000005f82015250565b5f611b40601a836117bc565b9150611b4b82611b0c565b602082019050919050565b5f6020820190508181035f830152611b6d81611b34565b9050919050565b7f4e6f6d696e656520534920746f6f206c6f7700000000000000000000000000005f82015250565b5f611ba86012836117bc565b9150611bb382611b74565b602082019050919050565b5f6020820190508181035f830152611bd581611b9c565b9050919050565b7f4e487b71000000000000000000000000000000000000000000000000000000005f52603260045260245ffd5b7f416c7265616479206e6f6d696e617465640000000000000000000000000000005f82015250565b5f611c3d6011836117bc565b9150611c4882611c09565b602082019050919050565b5f6020820190508181035f830152611c6a81611c31565b9050919050565b828183375f83830152505050565b5f601f19601f8301169050919050565b5f611c9a83856117bc565b9350611ca7838584611c71565b611cb083611c7f565b840190509392505050565b5f604082019050611cce5f8301866114e7565b8181036020830152611ce1818486611c8f565b905094935050505056fea2646970667358221220c0a8dd382a7c95c03c9e92fbd5d31c092ab458492710e86e09b1637df65a5f9864736f6c63430008210033","linkReferences":{}},"methodIdentifiers":{"getNominationCount(address)":"dcc19112","getScore(address)":"d47875d0","getTotalAgents()":"3731a16f","nominate(address)":"b332180b","nominations(address,uint256)":"ba313ef9","owner()":"8da5cb5b","qualifiesForAscendant(address)":"f1850cd8","recordFail(address,uint8,string)":"f4000435","recordPass(address,uint8,uint256)":"6efcc4ec","registerAgent()":"35eb5208","registeredAgents(uint256)":"a7bd211c","renounceOwnership()":"715018a6","scores(address)":"76dd110f","transferOwnership(address)":"f2fde38b","updateScore(address,uint256,uint256,uint8)":"91178561"},"id":1}